:100000000C9476000C949E000C949E000C949E0020
:100010000C949E000C949E000C949E000C949E00E8
:100020000C949E000C949E000C949E000C949E00D8
:100030000C949E000C949E000C949E000C949E00C8
:100040000C9468060C949E000C94D8060C94B2068E
:100050000C949E000C949E000C949E000C949E00A8
:100060000C949E000C949E0007634236B79BD8A761
:100070001A39685618AEBAAB558C1D3CB7CC5763CD
:10008000BD6DEDFD753EF6177231BF000000803F7B
:1000900008000000BE922449123EABAAAA2ABECD97
:1000A000CCCC4C3E00000080BEABAAAAAA3E000009
:1000B0000000BF000000803F000000000008417801
:1000C000D3BB4387D1133D190E3CC3BD4282AD2B38
:1000D0003E68EC8276BED98FE1A93E4C80EFFFBE30
:1000E00001C4FF7F3F00000000000A0711241FBE6B
:1000F000CFEFD8E0DEBFCDBF11E0A0E0B1E0E2E994
:10010000FEE102C005900D92AC35B107D9F729E0A8
:10011000ACE5B1E001C01D92A03EB207E1F710E0EE
:10012000C6E7D0E004C02197FE010E94800BC537CE
:10013000D107C9F70E94A4070C94470F0C94000044
:10014000E0917108F0917208309719F08CEA98E00C
:1001500009958091AD08823F09F4BAC090F5803CC2
:1001600009F499C0B8F4803909F44FC040F4E09123
:100170007508F0917608803809F44BC00895803AEC
:1001800009F484C0E0917B08F0917C08803B09F47D
:1001900040C00895803E09F462C040F4E0917F08B9
:1001A000F0918008803D09F47AC00895803F09F4F9
:1001B0007DC0E0918508F0918608813F09F49BC0DD
:1001C00008958A3FC1F1A8F4863F09F499C040F42C
:1001D000E0918908F0918A08833F09F48CC0089562
:1001E000883F09F1E0919108F0919208893FF9F078
:1001F00008958C3F51F120F18E3F61F1E091990813
:10020000F0919A088F3F99F00895E0917708F09166
:100210007808309709F479C04091AF086091AE0832
:100220008091AC080994E0918D08F0918E08309788
:1002300009F46BC00994E0918F08F0919008F7CF12
:10024000E0919308F0919408F2CFE0919508F09135
:100250009608EDCFE0919708F0919808E8CFE091EB
:100260008108F0918208309709F44FC06091AF087F
:1002700020E8629FB001112460787F738091AE08FE
:100280008F77682B70528091AC080994E0917908BF
:10029000F0917A08BECFE0917D08F0917E0830970A
:1002A000A1F16091AE088091AC080994E0918308B7
:1002B000F0918408309749F16091AE087091AF08D1
:1002C0006138710510F060E870E080EB98E0099407
:1002D000E0918708F09188083097B9F08091AF08D5
:1002E00020E8829FC001112480789F732091AE087E
:1002F0002F77822B0994309741F08091AE080994B2
:10030000E0918B08F0918C0892CF08952FB7F89464
:1003100060916D0870916E0880916F0890917008DF
:100320002FBF0895AF92BF92CF92DF92EF92FF92CC
:100330000F931F93CF93DF936C017B018B01040F0D
:10034000151FEB015E01AE18BF08C017D10759F0A9
:100350006991D601ED91FC910190F081E02DC601EB
:100360000995892B79F7C501DF91CF911F910F91E5
:10037000FF90EF90DF90CF90BF90AF900895FC0179
:10038000538D448D252F30E0842F90E0821B930BFA
:10039000541710F0CF96089501970895FC01918DA0
:1003A000828D981761F0A28DAE0FBF2FB11D5D96A3
:1003B0008C91928D9F5F9F73928F90E008958FEF45
:1003C0009FEF0895FC01918D828D981731F0828DF9
:1003D000E80FF11D858D90E008958FEF9FEF089550
:1003E000FC01918D228D892F90E0805C9F4F821BB4
:1003F00091098F739927089581E499E00E94F00193
:1004000021E0892B09F420E0822F089580E090E01C
:10041000892B29F00E94FC0181110C9400000895A1
:10042000FC01A48DA80FB92FB11DA35ABF4F2C9169
:10043000848D90E001968F739927848FA689B78960
:100440002C93A089B1898C91837080648C93938D57
:10045000848D981306C00288F389E02D80818F7DFA
:1004600080830895EF92FF920F931F93CF93DF93B2
:10047000EC0181E0888F9B8D8C8D98131AC0E889E0
:10048000F989808185FF15C09FB7F894EE89FF89AF
:100490006083E889F98980818370806480839FBF4D
:1004A00081E090E0DF91CF911F910F91FF90EF904D
:1004B0000895F62E0B8D10E00F5F1F4F0F7311275D
:1004C000E02E8C8D8E110CC00FB607FCFACFE88998
:1004D000F989808185FFF5CFCE010E941002F1CF0E
:1004E000EB8DEC0FFD2FF11DE35AFF4FF0829FB70C
:1004F000F8940B8FEA89FB8980818062CFCFCF93FC
:10050000DF93EC01888D8823B9F0AA89BB89E8893B
:10051000F9898C9185FD03C0808186FD0DC00FB6E1
:1005200007FCF7CF8C9185FFF2CF808185FFEDCF5F
:10053000CE010E941002E9CFDF91CF910895DC0136
:100540008D919C91DC01ED91FC910190F081E02D69
:1005500009948D3F60F48A3F10F4883F51F4682F6E
:1005600080919B0890919C080E949F0202C08E3F40
:10057000B0F781E798E008951F93CF93DF93C82FDA
:10058000162FD42F813E30F521502031E8F487FF1B
:100590001BC0622F682B80919B0890919C080E9441
:1005A0009F02612F6F7780919B0890919C080E9419
:1005B0009F02CF7EC03C41F06D2F6F7780919B08EA
:1005C00090919C080E949F0281E798E0DF91CF9173
:1005D0001F910895883FC0F30E94A902F5CF87FFBD
:1005E0000AC09CE0980F923030F08D3F21F0803FA0
:1005F00018F4807F089580E00895982F9F7E282F1B
:100600002F7C203839F0803E29F081E0903C19F0B1
:1006100080E0089581E00895FC0101900020E9F751
:100620003197AF01481B590BBC0181E499E00C9450
:1006300092018F929F92AF92BF920F931F93CF938D
:10064000DF93CDB7DEB7A1970FB6F894DEBF0FBE2C
:10065000CDBF19A2423008F44AE08E010F5D1F4F52
:10066000842E912CB12CA12CA50194010E945E0B2B
:10067000E62FB901CA01EA30F4F4E05DD801EE9347
:100680008D01232B242B252B79F790E080E0109708
:1006900019F0CD010E940C03A1960FB6F894DEBFAD
:1006A0000FBECDBFDF91CF911F910F91BF90AF9043
:1006B0009F908F900895E95CE1CF0C940C034F92CA
:1006C0005F926F927F928F929F92AF92BF92CF92E2
:1006D000DF92EF92FF920F931F93CF936B017C01F8
:1006E000742EAC019B010E940D0E882399F082E1CB
:1006F00091E0CF911F910F91FF90EF90DF90CF90FD
:10070000BF90AF909F908F907F906F905F904F9031
:100710000C940C0346015701E894B7F82FEF3FEF14
:100720004FE75FE7C501B4010E940D0E81110DC0B6
:100730002FEF3FEF4FE75FE7C501B4010E94F30BD6
:1007400018161CF486E191E0D4CF2FEF3FEF4FE76E
:100750005FE4C701B6010E944B0D18161CF48AE134
:1007600091E0C7CF2FEF3FEF4FE75FECC701B60136
:100770000E94F30B87FDF3CF20E030E0A901C70111
:10078000B6010E94F30B10E000E087FF0AC06DE2A3
:1007900081E499E00E9432028C01F7FAF094F7F8B4
:1007A000F094C0E060E070E080E09FE37C1641F0F0
:1007B00020E030E040E251E40E94F80BCF5FF6CF3A
:1007C000A70196010E94870B2B013C010E946A0C35
:1007D0004B015C014AE00E9419037C01E00EF11E0E
:1007E000CC23C1F1C501B4010E94990C9B01AC015D
:1007F000C301B2010E94860B4B015C016EE281E4F1
:1008000099E00E943202E80EF91EC15018F120E072
:1008100030E040E251E4C501B4010E94500D2B01CB
:100820003C010E946A0C4B01B12CA12C4AE0C5018D
:10083000B4010E941903E80EF91EC501B4010E941B
:10084000990C9B01AC01C301B2010E94860B4B01C4
:100850005C01DBCFC701CF911F910F91FF90EF900B
:10086000DF90CF90BF90AF909F908F907F906F90D0
:100870005F904F900895CF92DF92EF92FF92CF93C7
:10088000DF936C01990FEE08FF08F7FE19C06DE2C7
:1008900081E499E00E943202EC0166277727CB01C0
:1008A0006C197D098E099F094AE00E9419038C0F7B
:1008B0009D1FDF91CF91FF90EF90DF90CF90089533
:1008C0004AE0C701B601DF91CF91FF90EF90DF9032
:1008D000CF900C9419034F925F926F927F928F92F8
:1008E0009F92AF92BF92CF92DF92EF92FF920F93BF
:1008F0001F93CF93DF93862E942E28013901C62FA4
:10090000D0E08E01000F111F000F111F9801205A17
:10091000394F5901F9011082118212821382980114
:10092000205A3B4F6901F901108211821282138211
:10093000005A1D4FF8011082118212821382CE01DB
:10094000880F991F9C01205A3E4F7901F9011182AD
:1009500010828EE191E00E945D03682D70E090E0CE
:1009600080E04AE00E94190385E291E00E945D0365
:10097000F701808191810E943B0481E391E00E9414
:100980005D03F501608171818281938142E00E9463
:100990005F038EE391E00E945D03F8016081718145
:1009A0008281938142E00E945F0388E491E00E948B
:1009B0000C038BE491E00E945D03F601608171817C
:1009C0008281938142E00E945F03BE0165547109F8
:1009D000072E000C880B990B0E949B0C20E030E046
:1009E00040E451E40E94F80B9B01AC0160E070E030
:1009F00080E090E40E94BD0D20E030E04CED53E437
:100A00000E94500D6B017C0120E030E048E452E48C
:100A10000E944B0D87FD2FC020E030E04AE753E4F1
:100A2000C701B6010E94F30B18162CF1692D70E076
:100A300090E080E00E949B0C20E030E04EEF52E41A
:100A40000E94F80B21E834E045E35FE30E944B0D80
:100A500087FD11C0411451046104710421F40E9406
:100A600086012B013C0140925C0150925D01609235
:100A70005E0170925F0180915C0190915D01A09197
:100A80005E01B0915F01B095A095909581959F4FC3
:100A9000AF4FBF4F8093640890936508A09366089A
:100AA000B0936708DF91CF911F910F91FF90EF9066
:100AB000DF90CF90BF90AF909F908F907F906F907E
:100AC0005F904F9008952F923F924F925F926F9256
:100AD0007F928F929F92AF92BF92CF92DF92EF92CE
:100AE000FF920F931F93CF93DF9300D000D000D0DD
:100AF000CDB7DEB78C83698368017901642F70E01C
:100B000090E080E00E949B0C20E030E04EEF52E449
:100B10000E94F80B2B013C012981022F10E0B80143
:100B200065547109072E000C880B990B0E949B0CD1
:100B300020E030E040E451E40E94F80B9B01AC015E
:100B400060E070E080E090E40E94BD0D20E030E0C5
:100B50004CED53E40E94500D4B015C010E94860154
:100B6000F801EE0FFF1FEE0FFF1FFE83ED83E05A2B
:100B7000F94F1F010E94990CF101608371838283F8
:100B800093832D813E81205A3B4F3B832A83F90179
:100B900040825182628273822D813E81205A3D4F74
:100BA0003E832D83F90180829182A282B382000F5D
:100BB000111F005A1E4FFC818F2F90E0F801918386
:100BC00080838EE191E00E945D03F9816F2F70E0D8
:100BD00090E080E04AE00E94190385E291E00E94E3
:100BE0005D03F801808191810E943B0481E391E0E3
:100BF0000E945D03F101608171818281938142E0F5
:100C00000E945F038EE391E00E945D03ED81FE810F
:100C1000608171818281938142E00E945F0388E458
:100C200091E00E940C038BE491E00E945D03EA8155
:100C3000FB81608171818281938142E00E945F0328
:100C400020E030E048E452E4C501B4010E944B0DBD
:100C500087FD25C020E030E04AE753E4C501B40138
:100C60000E94F30B1816DCF021E834E045E35FE363
:100C7000C301B2010E944B0D87FD11C0C114D10404
:100C8000E104F10421F40E9486016B017C01C09211
:100C90005C01D0925D01E0925E01F0925F012696C8
:100CA0000FB6F894DEBF0FBECDBFDF91CF911F917D
:100CB0000F91FF90EF90DF90CF90BF90AF909F90FB
:100CC0008F907F906F905F904F903F902F900895FE
:100CD0001F920F920FB60F9211242F933F938F9371
:100CE0009F93AF93BF9380916D0890916E08A091F0
:100CF0006F08B091700830916C0823E0230F2D37F6
:100D000058F50196A11DB11D20936C0880936D08C4
:100D100090936E08A0936F08B09370088091680854
:100D200090916908A0916A08B0916B080196A11D85
:100D3000B11D8093680890936908A0936A08B093E6
:100D40006B08BF91AF919F918F913F912F910F9021
:100D50000FBE0F901F90189526E8230F0296A11D35
:100D6000B11DD2CF1F920F920FB60F9211242F9365
:100D70003F934F935F936F937F938F939F93AF9323
:100D8000BF93EF93FF9381E499E00E941002FF91DB
:100D9000EF91BF91AF919F918F917F916F915F91F3
:100DA0004F913F912F910F900FBE0F901F9018956C
:100DB0001F920F920FB60F9211242F938F939F9330
:100DC000EF93FF93E0915109F09152098081E091F6
:100DD0005709F091580982FD1BC0908180915A09F2
:100DE0008F5F8F7320915B09821741F0E0915A0960
:100DF000F0E0EF5BF64F958F80935A09FF91EF91EA
:100E00009F918F912F910F900FBE0F901F9018956B
:100E10008081F4CFE1E4F9E01382128288EE93E05E
:100E2000A0E0B0E084839583A683B78384E091E05B
:100E30009183808385EC90E09587848784EC90E0B3
:100E40009787868780EC90E0918B808B81EC90E097
:100E5000938B828B82EC90E0958B848B86EC90E078
:100E6000978B868B118E128E138E148EF093DF0962
:100E7000E093DE09E1E7F8E011821082138212822A
:100E800015821482178216821186108613861286A6
:100E90001586148617861686118A108A138A128A76
:100EA000158A148A178A168A118E108E138E128E46
:100EB000158E148E178E168E11A210A213A212A2D6
:100EC00015A214A217A216A211A610A68EED99E0E3
:100ED00093A782A714A615A616A613AA12AA15AA46
:100EE00014AA8FEF9FEF97AB86AB91AF80AF83E0F3
:100EF0008093AB0813AE14AE15AE16AE1092300947
:100F0000E0EBF8E080E8DF011D928A95E9F71092A6
:100F10003309109234091092350910923609109253
:100F20003709109238091092390910923A09109233
:100F30003B0910923C0910923D0910923E09109213
:100F40003F09109240090895789484B5826084BD69
:100F500084B5816084BD85B5826085BD85B58160BD
:100F600085BD80916E00816080936E00109281003B
:100F700080918100826080938100809181008160F6
:100F800080938100809180008160809380008091B7
:100F9000B10084608093B1008091B0008160809343
:100FA000B00080917A00846080937A0080917A000A
:100FB000826080937A0080917A00816080937A00C9
:100FC00080917A00806880937A001092C100E0914D
:100FD0005109F091520922E02083E0914D09F091EE
:100FE0004E091082E0914F09F09150098FEC8083F7
:100FF00010925909E0915509F091560996E09083B5
:10100000E0915309F0915409808180618083E091DF
:101010005309F0915409808188608083E0915309DD
:10102000F0915409808180688083E0915309F091A8
:10103000540980818F7D8083E0919B08F0919C080A
:101040000190F081E02DA089B1892C93A485B5850C
:101050001C92A685B7858FE38C93108EA489B589E1
:101060009C93A289B3898C9180618C93A289B38966
:101070008C9188608C93A289B3898C9180688C93C1
:101080000288F389E02D80818F7D808310929D08F6
:1010900010929F0810929E081092A6081092A50820
:1010A0001092A4081092A3088FEF9FEF9093A808C6
:1010B0008093A7089093AA088093A9080E948601AC
:1010C00060933309709334098093350990933609FE
:1010D000109230091092AD081092AC081092AE0830
:1010E0001092AF0810923209109231098091AB082A
:1010F0008170826081608093AB0883E695E0909375
:101100007808809377088BE694E090937608809334
:10111000750840E0442E40E0542E50E8E52EF12CB6
:101120007724739462E0C62ED12C01E010E073E0C6
:10113000A72EB12C20E8322E30EF632E90909D0820
:1011400020E1291508F478C0E0919B08F0919C08F3
:1011500080819181DC01ED91FC910084F185E02D8D
:101160000995892B09F468C0809140098E7F80938E
:101170004009E0919B08F0919C0880819181DC01FD
:10118000ED91FC910284F385E02D0995C82F8D3FE8
:1011900009F452C08091A5089091A608009709F023
:1011A00039C1C093A008D0919E088D2F0E94EF02F4
:1011B0000E94FD02882351F0C7FD08C0D093A0080B
:1011C000C093A1081093A6080093A508C091A00899
:1011D0008C2F0E94EF02813F09F4E9C008F082C021
:1011E000803B39F058F4803921F0803A11F0803892
:1011F00069F4B092A408A092A308DDC0803D09F470
:10120000D6C008F060C0803C09F4D1C0809140098C
:10121000816080934009E0917308F09174083097E1
:1012200009F009951092A6081092A5081092A4083A
:101230001092A30810929E080E948601683E734097
:1012400081059105A0F16091640870916508809115
:10125000660890916708611571058105910539F15E
:101260000E94990C9B01AC0160E070E68AE697E46D
:101270000E94F80B0E946A0C6093600870936108EA
:10128000809362089093630886E591E00E945D0375
:101290006091600870916108809162089091630884
:1012A0004AE00E94190388E491E00E940C03411473
:1012B000510409F443CF0E94FC01882309F43ACF7A
:1012C0000E94000037CF803E09F493CF803F09F0A1
:1012D0009DCFF092A408E092A30810929E088093FC
:1012E000B00869C0873FA9F308F05AC0833F09F4EA
:1012F0005EC008F47ECF863F09F088CF8093AD08AA
:101300001092AC081092AE081092AF08709230099B
:101310001092A6081092A5081092A4081092A30893
:101320008091AD08803931F48091AF08811102C0FD
:101330003092AD088091AD088058813630F48091AC
:10134000AC08981611F0911002C00E94A000909174
:10135000AB08392F317090FF6FCF892F8E7F09F442
:101360006BCF8091AD0820E8280F213608F028C106
:101370002091AC08921619F031E0911030E096956A
:10138000923009F416C1933009F417C1913009F075
:1013900053CF4091AF086091AE080E94BC024CCF81
:1013A0008D3F08F4ABCF8E3F08F0A8CF2FCFD0925F
:1013B000A408C092A3082091A5083091A6084091E6
:1013C000A3085091A4084150510924173507D8F0BB
:1013D0008093AD08CF70CF5FC093AC088091A10817
:1013E0008093AE081092AF08109332090093310930
:1013F0001092A6081092A5081092A4081092A308B3
:10140000709230098DCF2F5F3F4F3093A608209305
:10141000A50812CFC7FF0CC0CD3F08F045C0C83F9C
:1014200008F044C0C03F09F44EC0C73F09F44BC0A8
:101430002091A008FC01EF58F74F203F19F0273FFB
:1014400009F068C0C7AFC091A308D091A4089E015D
:10145000215031098217930708F4A5C02090A008F5
:10146000F0EF2F1619F027EF221256C0C0912F0966
:1014700060922F096092AD083092AE081092AF08CA
:101480001092AC08F0923209E09231097092300962
:101490000E94A00087EF8093B008C093B108D0925B
:1014A000A608C092A508C8CECE3F10F2C093AD08E2
:1014B0001092AE081092AF081092AC081093320947
:1014C000009331099DCF2091B008203F19F0273FAC
:1014D00009F09CCE9C012F5F3F4F8F58974FFC0126
:1014E000C7AF6092AD082093AE083093AF0810925A
:1014F000AC08309332092093310970923009109270
:10150000A6081092A5081092A4081092A3081092A1
:101510009E0806CFC7A797CF822D0E94EF02882E84
:101520008093AD080E94FD02882381F1822D8F7087
:101530008F5F8093AC088091A1088093AE08809162
:10154000A208C330D10509F080E08093AF08D093A2
:101550003209C09331091092A6081092A508109282
:10156000A4081092A30870923009A0EB8A1659F0D3
:10157000A81578F0B0E98B1631F0E0EA8E1619F074
:10158000F0E88F12C4CF20929E08CACE1092AC0809
:10159000D2CF20ED8216B9F380EE8816A1F3A0EC2D
:1015A0008A12B5CFF0CF01969093A6088093A50834
:1015B00043CE332309F440CEECCE31113DCEE9CEFB
:1015C000E0E1E80FE03108F037CEF0E0E651F54F0A
:1015D0000C94800BFD0A4A0B2C0B1A0B1C091C09DE
:1015E000FA0A1C09FA0A1C09FA0AFA0AFA0A1C0978
:1015F000FA0AFA0A0E94A9021FCE8090AE089090C3
:10160000AF08B1E88B16910418F090E8892E912C60
:10161000C1E7D8E0CE01815798408815990508F0B8
:101620000BCE6FAD80919B0890919C080E949F0209
:101630002196F0CFC091AE0863EF80919B08909106
:101640009C080E949F026C2F6F7780919B0890915D
:101650009C080E949F02F0CDC091AF08E0E8CE9FA9
:10166000E00111248091AE08C82B62EF80919B08A5
:1016700090919C080E949F026C2F6F7780919B082D
:1016800090919C080E949F02CC0FCD2FCC1FDD0BA8
:10169000D195D9CF6091AE08F0E16F9FB0011124D0
:1016A0006077C091AF08CF70C62B61EF80919B0827
:1016B00090919C080E949F026C2FC7CFA1E21A2E26
:1016C000AA1BBB1BFD010DC0AA1FBB1FEE1FFF1FE6
:1016D000A217B307E407F50720F0A21BB30BE40B36
:1016E000F50B661F771F881F991F1A9469F760957D
:1016F0007095809590959B01AC01BD01CF01089537
:10170000EE0FFF1F0590F491E02D09945058BB2770
:10171000AA270E949E0B0C94110D0E94030D38F015
:101720000E940A0D20F039F49F3F19F426F40C941E
:10173000000D0EF4E095E7FB0C94FA0CE92F0E94E3
:10174000220D58F3BA17620773078407950720F034
:1017500079F4A6F50C94440D0EF4E0950B2EBA2FF7
:10176000A02D0B01B90190010C01CA01A0011124A7
:10177000FF27591B99F0593F50F4503E68F11A1653
:10178000F040A22F232F342F4427585FF3CF4695E4
:1017900037952795A795F0405395C9F77EF41F1606
:1017A000BA0B620B730B840BBAF09150A1F0FF0FD0
:1017B000BB1F661F771F881FC2F70EC0BA0F621FBC
:1017C000731F841F48F4879577956795B795F795AC
:1017D0009E3F08F0B0CF9395880F08F09927EE0F41
:1017E0009795879508950E94D60C08F481E0089596
:1017F0000E940C0C0C94110D0E940A0D58F00E94CE
:10180000030D40F029F45F3F29F00C94FA0C5111BC
:101810000C94450D0C94000D0E94220D68F3992341
:10182000B1F3552391F3951B550BBB27AA276217DC
:101830007307840738F09F5F5F4F220F331F441FE9
:10184000AA1FA9F335D00E2E3AF0E0E832D091501D
:101850005040E695001CCAF72BD0FE2F29D0660F0A
:10186000771F881FBB1F261737074807AB07B0E84D
:1018700009F0BB0B802DBF01FF2793585F4F3AF053
:101880009E3F510578F00C94FA0C0C94450D5F3F87
:10189000E4F3983ED4F3869577956795B795F795D9
:1018A0009F5FC9F7880F911D9695879597F90895C1
:1018B000E1E0660F771F881FBB1F6217730784075D
:1018C000BA0720F0621B730B840BBA0BEE1F88F76C
:1018D000E09508950E942A0D88F09F5798F0B92F3F
:1018E0009927B751B0F0E1F0660F771F881F991F55
:1018F0001AF0BA95C9F714C0B13091F00E94440DA6
:10190000B1E008950C94440D672F782F8827B85FB5
:1019100039F0B93FCCF3869577956795B395D9F7AC
:101920003EF490958095709561957F4F8F4F9F4FB6
:101930000895E89409C097FB3EF4909580957095C2
:1019400061957F4F8F4F9F4F9923A9F0F92F96E90B
:10195000BB279395F695879577956795B795F11180
:10196000F8CFFAF4BB0F11F460FF1BC06F5F7F4F1D
:101970008F4F9F4F16C0882311F096E911C077232F
:1019800021F09EE8872F762F05C0662371F096E838
:10199000862F70E060E02AF09A95660F771F881F07
:1019A000DAF7880F9695879597F90895990F0008AB
:1019B000550FAA0BE0E8FEEF16161706E807F90721
:1019C000C0F012161306E407F50798F0621B730BBC
:1019D000840B950B39F40A2661F0232B242B252B3D
:1019E00021F408950A2609F4A140A6958FEF811DE0
:1019F000811D089597F99F6780E870E060E0089581
:101A00009FEF80EC089500240A9416161706180616
:101A10000906089500240A941216130614060506F2
:101A20000895092E0394000C11F4882352F0BB0F83
:101A300040F4BF2B11F460FF04C06F5F7F4F8F4FE6
:101A40009F4F089557FD9058440F551F59F05F3F21
:101A500071F04795880F97FB991F61F09F3F79F0D0
:101A600087950895121613061406551FF2CF469552
:101A7000F1DF08C0161617061806991FF1CF8695D4
:101A80007105610508940895E894BB2766277727B8
:101A9000CB0197F908950E94D60C08F48FEF0895B2
:101AA0000E94630D0C94110D0E94030D38F00E94EA
:101AB0000A0D20F0952311F00C94FA0C0C94000DF3
:101AC00011240C94450D0E94220D70F3959FC1F3D3
:101AD000950F50E0551F629FF001729FBB27F00DDC
:101AE000B11D639FAA27F00DB11DAA1F649F662731
:101AF000B00DA11D661F829F2227B00DA11D621F80
:101B0000739FB00DA11D621F839FA00D611D221F39
:101B1000749F3327A00D611D231F849F600D211D1D
:101B2000822F762F6A2F11249F5750409AF0F1F0A0
:101B300088234AF0EE0FFF1FBB1F661F771F881F09
:101B400091505040A9F79E3F510580F00C94FA0C3B
:101B50000C94450D5F3FE4F3983ED4F3869577955A
:101B60006795B795F795E7959F5FC1F7FE2B880FAF
:101B7000911D9695879597F90895FA01EE0FFF1F2D
:101B8000309621053105A1F16115710561F48038A8
:101B9000BFE39B0749F168949038810561F0803874
:101BA000BFEF9B0741F099234AF5FF3FE10531055F
:101BB000210519F1E8940894E795D901AA2329F49D
:101BC000AB2FBE2FF85FD0F310C0FF5F70F4A69567
:101BD000E0F7F73950F019F0FF3A38F49F779F9308
:101BE0000DD00F9007FC9058089546F00C94000D0E
:101BF00060E070E080E89FE308954FE79F775F9390
:101C00004F933F932F930E94BD0E2F913F914F9181
:101C10005F910E94500D0C941A0E0E94D60C880BF6
:101C2000990B089529F416F00C94FA0C0C94440DB9
:101C30000C94000D0E942A0DA8F39638A0F707F81F
:101C40000F92E8942BE33AEA48EB5FE70E94660DB7
:101C50000F920F920F924DB75EB70F920E94050F31
:101C6000E8E6F0E00E944C0E4F915F91EF91FF91FA
:101C7000E595EE1FFF1F49F0FE57E0684427EE0F81
:101C8000441FFA95E1F74195550B0E947F0E0F9086
:101C900007FE0C94730E0895DF93CF931F930F9359
:101CA000FF92EF92DF927B018C01689406C0DA2EDE
:101CB000EF010E94630DFE01E894A59125913591F5
:101CC00045915591A6F3EF010E949E0BFE019701ED
:101CD000A801DA9469F7DF90EF90FF900F911F91C0
:101CE000CF91DF9108959B01AC0160E070E080E846
:101CF0009FE30C94F80B0C94FA0C0C94390F0E948F
:101D00002A0DD8F39923C9F3940F511DA3F39150D1
:101D1000504094F059F0882332F0660F771F881FE7
:101D200091505040C1F79E3F51052CF7880F911DEF
:101D30009695879597F908955F3FACF0983E9CF093
:101D4000BB27869577956795B79508F4B16093950D
:101D5000C1F7BB0F58F711F460FFE8CF6F5F7F4FFB
:101D60008F4F9F4FE3CF0C94450D16F00C94390F15
:101D70000C94000D68940C94FA0C0E942A0DA8F3A0
:101D80009923C1F3AEF3DF93CF931F930F93FF9289
:101D9000C92FDD2788232AF02197660F771F881F18
:101DA000DAF720E030E040E85FEB9FE3883920F08D
:101DB000803E38F021968F770E94870BE0E9F0E0B3
:101DC00004C00E94870BEDEBF0E00E944C0E8B01EB
:101DD000BE01EC01FB2E6F5771097595771F880BBB
:101DE000990B0E949B0C28E132E741E35FE30E94DC
:101DF000630DAF2D9801AE01FF900F911F91CF9110
:101E0000DF910E949E0B0C94110DFA01DC01AA0FC8
:101E1000BB1F9B01AC01BF5728F42227332744275F
:101E2000507820C0B75190F4AB2F002446953795D9
:101E30002795011CA395D2F3002071F0220F331FC8
:101E4000441FB395DAF30ED00C94860B6130710504
:101E5000A0E88A07B94630F49B01AC0166277727D2
:101E600088279078309621F02083318342835383F2
:101E700008959F3F31F0915020F4879577956795AD
:101E8000B795880F911D9695879597F90895F894C1
:021E9000FFCF82
:101E92000000000032029201BF017F02F001CE0178
:101EA200E2016E616E00696E66006F7666004E6FCB
:101EB20074653A20002C204368616E6E656C3A208E
:101EC200002C204475726174696F6E3A20002C20D8
:101ED20050697463683A20000D0A002C20566F6C1A
:0C1EE200756D653A200042504D3A20001A
:00000001FF
