:100000000C9436000C945E000C945E000C945E0020
:100010000C945E000C945E000C945E000C945E00E8
:100020000C945E000C945E000C945E000C945E00D8
:100030000C945E000C945E000C945E000C945E00C8
:100040000C94D8020C945E000C9448030C94220388
:100050000C945E000C945E000C945E000C945E00A8
:100060000C945E000C945E007A036A0711241FBE94
:10007000CFEFD8E0DEBFCDBF11E0A0E0B1E0E6E514
:10008000F1E102C005900D92A831B107D9F722E045
:10009000A8E1B1E001C01D92A53AB207E1F710E076
:1000A000C5E3D0E004C02197FE010E947307C4336A
:1000B000D107C9F70E9419040C949E080C94000003
:1000C000E0913201F0913301309719F08DE691E023
:1000D000099580916E01823F09F4BAC090F5803C89
:1000E00009F499C0B8F4803909F44FC040F4E091A4
:1000F0003601F0913701803809F44BC00895803AF9
:1001000009F484C0E0913C01F0913D01803B09F489
:1001100040C00895803E09F462C040F4E09140017F
:10012000F0914101803D09F47AC00895803F09F4BF
:100130007DC0E0914601F0914701813F09F49BC0E9
:1001400008958A3FC1F1A8F4863F09F499C040F4AC
:10015000E0914A01F0914B01833F09F48CC008956E
:10016000883F09F1E0915201F0915301893FF9F084
:1001700008958C3F51F120F18E3F61F1E0915A01D9
:10018000F0915B018F3F99F00895E0913801F09173
:100190003901309709F479C04091700160916F0185
:1001A00080916D010994E0914E01F0914F013097DB
:1001B00009F46BC00994E0915001F0915101F7CF1F
:1001C000E0915401F0915501F2CFE0915601F09188
:1001D0005701EDCFE0915801F0915901E8CFE0913E
:1001E0004201F0914301309709F44FC060917001D2
:1001F00020E8629FB001112460787F7380916F01C5
:100200008F77682B705280916D010994E0913A01CB
:10021000F0913B01BECFE0913E01F0913F0130975C
:10022000A1F160916F0180916D010994E091440109
:10023000F0914501309749F160916F017091700123
:100240006138710510F060E870E081E791E0099491
:10025000E0914801F09149013097B9F08091700127
:1002600020E8829FC001112480789F7320916F0144
:100270002F77822B0994309741F080916F01099478
:10028000E0914C01F0914D0192CF08950895AF9205
:10029000BF92CF92DF92EF92FF920F931F93CF9373
:1002A000DF936C017B018B01040F151FEB015E01D5
:1002B000AE18BF08C017D10759F06991D601ED916A
:1002C000FC910190F081E02DC6010995892B79F709
:1002D000C501DF91CF911F910F91FF90EF90DF90BB
:1002E000CF90BF90AF900895FC01538D448D252F82
:1002F00030E0842F90E0821B930B541710F0CF96C0
:10030000089501970895FC01918D828D981761F0F1
:10031000A28DAE0FBF2FB11D5D968C91928D9F5F08
:100320009F73928F90E008958FEF9FEF0895FC01E7
:10033000918D828D981731F0828DE80FF11D858D9A
:1003400090E008958FEF9FEF0895FC01918D228D2D
:10035000892F90E0805C9F4F821B91098F739927B2
:10036000089582E092E00E94A50121E0892B09F422
:1003700020E0822F089580E090E0892B29F00E94F0
:10038000B10181110C9400000895FC01A48DA80F07
:10039000B92FB11DA35ABF4F2C91848D90E00196C7
:1003A0008F739927848FA689B7892C93A089B189E7
:1003B0008C91837080648C93938D848D981306C088
:1003C0000288F389E02D80818F7D80830895EF92EC
:1003D000FF920F931F93CF93DF93EC0181E0888FFF
:1003E0009B8D8C8D98131AC0E889F989808185FFCF
:1003F00015C09FB7F894EE89FF896083E889F98971
:1004000080818370806480839FBF81E090E0DF9172
:10041000CF911F910F91FF90EF900895F62E0B8DC5
:1004200010E00F5F1F4F0F731127E02E8C8D8E1180
:100430000CC00FB607FCFACFE889F989808185FFE7
:10044000F5CFCE010E94C501F1CFEB8DEC0FFD2F52
:10045000F11DE35AFF4FF0829FB7F8940B8FEA89A2
:10046000FB8980818062CFCFCF93DF93EC01888DB1
:100470008823B9F0AA89BB89E889F9898C9185FD1F
:1004800003C0808186FD0DC00FB607FCF7CF8C91AD
:1004900085FFF2CF808185FFEDCFCE010E94C5019F
:1004A000E9CFDF91CF910895DC018D919C91DC0122
:1004B000ED91FC910190F081E02D09948D3F60F465
:1004C0008A3F10F4883F51F4682F80915C0190912D
:1004D0005D010E94540202C08E3FB0F782E391E0BA
:1004E00008951F93CF93DF93C82F162FD42F813EEB
:1004F00030F521502031E8F487FF1BC0622F682BB4
:1005000080915C0190915D010E945402612F6F7790
:1005100080915C0190915D010E945402CF7EC03CAD
:1005200041F06D2F6F7780915C0190915D010E9489
:10053000540282E391E0DF91CF911F910895883FAB
:10054000C0F30E945E02F5CF87FF0AC09CE0980FBF
:10055000923030F08D3F21F0803F18F4807F089575
:1005600080E00895982F9F7E282F2F7C203839F027
:10057000803E29F081E0903C19F080E0089581E010
:1005800008958FB7F89440911D0150911E0160911C
:100590001F01709120018FBF8FB7F89440911D010A
:1005A00050911E0160911F01709120018FBF08952D
:1005B0001F920F920FB60F9211242F933F938F9398
:1005C0009F93AF93BF9380911D0190911E01A091C5
:1005D0001F01B091200130911C0123E0230F2D3722
:1005E00058F50196A11DB11D20931C0180931D019A
:1005F00090931E01A0931F01B093200180911801D8
:1006000090911901A0911A01B0911B010196A11DB1
:10061000B11D8093180190931901A0931A01B09312
:100620001B01BF91AF919F918F913F912F910F909F
:100630000FBE0F901F90189526E8230F0296A11D5C
:10064000B11DD2CF1F920F920FB60F9211242F938C
:100650003F934F935F936F937F938F939F93AF934A
:10066000BF93EF93FF9382E092E00E94C501FF9158
:10067000EF91BF91AF919F918F917F916F915F911A
:100680004F913F912F910F900FBE0F901F90189593
:100690001F920F920FB60F9211242F938F939F9357
:1006A000EF93FF93E0911202F09113028081E091A9
:1006B0001802F091190282FD1BC0908180911B02EB
:1006C0008F5F8F7320911C02821741F0E0911B0213
:1006D000F0E0EE5FFD4F958F80931B02FF91EF914D
:1006E0009F918F912F910F900FBE0F901F90189593
:1006F0008081F4CFE2E0F2E01382128288EE93E090
:10070000A0E0B0E084839583A683B7838AE091E07C
:100710009183808385EC90E09587848784EC90E0DA
:100720009787868780EC90E0918B808B81EC90E0BE
:10073000938B828B82EC90E0958B848B86EC90E09F
:10074000978B868B118E128E138E148EF093A002CF
:10075000E0939F02E2E3F1E01182108213821282A1
:1007600015821482178216821186108613861286CD
:100770001586148617861686118A108A138A128A9D
:10078000158A148A178A168A118E108E138E128E6D
:10079000158E148E178E168E11A210A213A212A2FD
:1007A00015A214A217A216A211A610A68FE992E014
:1007B00093A782A714A615A616A613AA12AA15AA6D
:1007C00014AA8FEF9FEF97AB86AB91AF80AF83E01A
:1007D00080936C0113AE14AE15AE16AE1092F101FB
:1007E000E1E7F1E080E8DF011D928A95E9F71092D8
:1007F000F4011092F5011092F6011092F701109297
:10080000F8011092F9011092FA011092FB01109276
:10081000FC011092FD011092FE011092FF01109256
:10082000000210920102E1E2F1E0108211821282D4
:100830000895789484B5826084BD84B5816084BD58
:1008400085B5826085BD85B5816085BD80916E006E
:10085000816080936E00109281008091810082609F
:1008600080938100809181008160809381008091DC
:1008700080008160809380008091B10084608093CB
:10088000B1008091B00081608093B00080917A00C7
:10089000846080937A0080917A00826080937A00ED
:1008A00080917A00816080937A0080917A008068DC
:1008B00080937A001092C100E0915C01F0915D019B
:1008C0000190F081E02DA089B18982E08C93A4850C
:1008D000B5851C92A685B7858FE38C93108EA4896D
:1008E000B58986E08C93A289B3898C9180618C93C1
:1008F000A289B3898C9188608C93A289B3898C91E9
:1009000080688C930288F389E02D80818F7D8083BD
:1009100010925E011092600110925F0110926701C7
:100920001092660110926501109264018FEF9FEFA3
:10093000909369018093680190936B0180936A01A1
:100940002FB7F89480911D0190911E01A0911F0175
:10095000B09120012FBF8093F4019093F501A093F3
:10096000F601B093F7011092F10110926E0110920E
:100970006D0110926F01109270011092F3011092AC
:10098000F20180916C0181708260816080936C01C2
:1009900081EC92E0909339018093380186E491E0F4
:1009A000909337018093360140E0442E40E0542E6E
:1009B00050E8E52EF12C7724739462E0C62ED12CFA
:1009C00001E010E073E0A72EB12C20E8322E30EFCA
:1009D000632E80905E0180E1881508F477C0E09175
:1009E0005C01F0915D0180819181DC01ED91FC91D0
:1009F0000084F185E02D0995892B09F467C0809169
:100A000001028E7F80930102E0915C01F0915D0113
:100A100080819181DC01ED91FC910284F385E02DD0
:100A20000995C82F8D3F09F451C0809166019091BE
:100A30006701009709F0FAC0C0936101D0915F018E
:100A40008D2F0E94A4020E94B202882351F0C7FD9C
:100A500008C0D0936101C0936201109367010093B5
:100A60006601C09161018C2F0E94A402813F09F4AC
:100A7000AAC008F044C0803B39F058F4803921F016
:100A8000803A11F0803861F4B0926501A09264015F
:100A90009EC0803D09F497C028F5803C09F493C0BE
:100AA00080910102816080930102E0913401F09114
:100AB0003501309709F0099510926701109266018F
:100AC000109265011092640110925F01411451046B
:100AD00009F47FCF0E94B101882309F476CF0E94E8
:100AE000000073CF803E81F2803FD1F6F092650125
:100AF000E092640110925F018093710168C0873FAA
:100B0000A9F308F059C0833F09F45DC008F4BCCFD5
:100B1000863F31F680936E0110926D0110926F0145
:100B2000109270017092F1011092670110926601AB
:100B3000109265011092640180916E01803931F448
:100B400080917001811102C030926E0180916E011E
:100B50008058813630F480916D01881611F0811033
:100B600002C00E94600090916C01392F317090FF9B
:100B7000ADCF892F8E7F09F4A9CF80916E0120E837
:100B8000280F213608F028C120916D01821619F036
:100B900031E0811030E09695923009F416C193301F
:100BA00009F417C1913009F091CF40917001609123
:100BB0006F010E9471028ACF8D3F08F4ABCF8E3F48
:100BC00008F0A8CF6DCFD0926501C092640120914A
:100BD0006601309167014091640150916501415077
:100BE000510924173507D8F080936E01CF70CF5F7D
:100BF000C0936D018091620180936F01109270012A
:100C00001093F3010093F2011092670110926601B4
:100C100010926501109264017092F1018DCF2F5FE7
:100C20003F4F309367012093660150CFC7FF0CC040
:100C3000CD3F08F045C0C83F08F044C0C03F09F4AC
:100C40004EC0C73F09F44BC020916101FC01EE5C2E
:100C5000FE4F203F19F0273F09F068C0C7AFC09191
:100C60006401D09165019E012150310982179307DB
:100C700008F4A5C020906101F0EF2F1619F087EF5E
:100C8000281256C0C091F0016092F00160926E018E
:100C900030926F011092700110926D01F092F30189
:100CA000E092F2017092F1010E946000A7EFA09320
:100CB0007101C0937201D0926701C092660106CFA4
:100CC000CE3F10F2C0936E0110926F01109270012E
:100CD00010926D011093F3010093F2019DCF2091CA
:100CE0007101203F19F0273F09F0DACE9C012F5FF8
:100CF0003F4F8E5C9E4FFC01C7AF60926E01209308
:100D00006F013093700110926D013093F3012093C5
:100D1000F2017092F1011092670110926601109237
:100D200065011092640110925F0106CFC7A797CFAB
:100D3000822D0E94A402982E80936E010E94B2021E
:100D4000882381F1822D8F708F5F80936D01809158
:100D5000620180936F0180916301C330D10509F076
:100D600080E080937001D093F301C093F201109260
:100D700067011092660110926501109264017092F1
:100D8000F101B0EB9B1659F0B91578F0E0E99E1629
:100D900031F0F0EA9F1619F080E89812C4CF209243
:100DA0005F01CACE10926D01D2CFA0ED9A16B9F3B1
:100DB000B0EE9B16A1F3E0EC9E12B5CFF0CF0196FA
:100DC000909367018093660181CE332309F47ECE30
:100DD000ECCE31117BCEE9CEE0E1E80FE03108F056
:100DE00075CEF0E0EA50F94F0C94730709075607E7
:100DF00038072607660566050607660506076605C1
:100E00000607060706076605060706070E945E0234
:100E10005DCE80906F0190907001F1E88F16910483
:100E200018F090E8892E912CC2E3D1E0CE018253D4
:100E300091408815990508F049CE6FAD80915C010D
:100E400090915D010E9454022196F0CFC0916F01F4
:100E500063EF80915C0190915D010E9454026C2FC0
:100E60006F7780915C0190915D010E9454022ECEBB
:100E7000C091700180E8C89FE001112480916F014A
:100E8000C82B62EF80915C0190915D010E94540239
:100E90006C2F6F7780915C0190915D010E945402EC
:100EA000CC0FCD2FCC1FDD0BD195D9CF60916F0129
:100EB000A0E16A9FB00111246077C0917001CF70EA
:100EC000C62B61EF80915C0190915D010E945402FC
:100ED0006C2FC7CF8091240190912501009711F0CC
:100EE0000C9415080895EE0FFF1F0590F491E02D66
:100EF00009940F931F93CF93DF938230910510F4E1
:100F000082E090E0E091A302F091A40230E020E0C2
:100F1000B0E0A0E0309799F42115310509F44AC0FA
:100F2000281B390B24303105D8F58A819B81611546
:100F3000710589F1FB0193838283FE0111C0408119
:100F400051810281138148175907E0F0481759076A
:100F500099F4109761F012960C93129713961C93C4
:100F60003296CF01DF91CF911F910F910895009399
:100F7000A3021093A402F4CF2115310551F04217BA
:100F8000530738F0A901DB019A01BD01DF01F80127
:100F9000C1CFEF01F9CF9093A4028093A302CDCFEC
:100FA000FE01E20FF31F819391932250310939839F
:100FB0002883D7CF2091A1023091A202232B41F4A4
:100FC00020910201309103013093A2022093A102EB
:100FD00020910001309101012115310541F42DB717
:100FE0003EB74091040150910501241B350BE0915F
:100FF000A102F091A202E217F307A0F42E1B3F0B0F
:101000002817390778F0AC014E5F5F4F241735077A
:1010100048F04E0F5F1F5093A2024093A1028193AC
:1010200091939FCFF0E0E0E09CCFCF93DF930097C8
:10103000E9F0FC01329713821282A091A302B091D1
:10104000A402ED0130E020E01097A1F4208131816D
:10105000820F931F2091A1023091A2022817390715
:1010600009F061C0F093A202E093A102DF91CF9159
:101070000895EA01CE17DF07E8F54A815B819E01FA
:1010800041155105B1F7E901FB83EA834991599173
:10109000C40FD51FEC17FD0761F480819181029682
:1010A000840F951FE90199838883828193819B83B3
:1010B0008A83F0E0E0E012968D919C91139700975F
:1010C000B9F52D913C911197CD010296820F931F96
:1010D0002091A1023091A2022817390739F63097E2
:1010E00051F51092A4021092A302B093A202A09311
:1010F000A102BCCFD383C28340815181840F951F4D
:10110000C817D90761F44E5F5F4F88819981480FF6
:10111000591F518340838A819B8193838283211548
:10112000310509F0B0CFF093A402E093A3029ECF63
:10113000FD01DC01C0CF13821282D7CF10E0C5E3DE
:10114000D0E004C0FE010E9473072196C633D10788
:06115000C9F7F894FFCF7F
:101156000000A502800000000000E70147017401BD
:081166003402A5018301970189
:00000001FF
