:100000000C9477000C949F000C949F000C949F001C
:100010000C949F000C949F000C949F000C949F00E4
:100020000C949F000C949F000C949F000C949F00D4
:100030000C949F000C949F000C949F000C949F00C4
:100040000C94AE050C949F000C941E060C94F805BD
:100050000C949F000C949F000C949F000C949F00A4
:100060000C949F000C949F0007634236B79BD8A75F
:100070001A39685618AEBAAB558C1D3CB7CC5763CD
:10008000BD6DEDFD753EF6177231BF000000803F7B
:1000900008000000BE922449123EABAAAA2ABECD97
:1000A000CCCC4C3E00000080BEABAAAAAA3E000009
:1000B0000000BF000000803F000000000008417801
:1000C000D3BB4387D1133D190E3CC3BD4282AD2B38
:1000D0003E68EC8276BED98FE1A93E4C80EFFFBE30
:1000E00001C4FF7F3F00000000005006730A112486
:1000F0001FBECFEFD8E0DEBFCDBF11E0A0E0B1E082
:10010000EEE2FFE102C005900D92AC35B107D9F7E0
:1001100029E0ACE5B1E001C01D92A93EB207E1F7CC
:1001200010E0C6E7D0E004C02197FE010E949E0ABD
:10013000C537D107C9F70E94EF060C948A0F0C94BB
:100140000000E0917608F0917708309719F081EB84
:1001500098E009958091B208823F09F4BAC090F501
:10016000803C09F499C0B8F4803909F44FC040F4D8
:10017000E0917A08F0917B08803809F44BC008952B
:10018000803A09F484C0E0918008F0918108803BB6
:1001900009F440C00895803E09F462C040F4E09143
:1001A0008408F0918508803D09F47AC00895803F65
:1001B00009F47DC0E0918A08F0918B08813F09F431
:1001C0009BC008958A3FC1F1A8F4863F09F499C005
:1001D00040F4E0918E08F0918F08833F09F48CC0C1
:1001E0000895883F09F1E0919608F0919708893FBA
:1001F000F9F008958C3F51F120F18E3F61F1E091CB
:100200009E08F0919F088F3F99F00895E0917C0837
:10021000F0917D08309709F479C04091B40860915D
:10022000B3088091B1080994E0919208F091930885
:10023000309709F46BC00994E0919408F091950807
:10024000F7CFE0919808F0919908F2CFE0919A08E1
:10025000F0919B08EDCFE0919C08F0919D08E8CFCC
:10026000E0918608F0918708309709F44FC06091BB
:10027000B40820E8629FB001112460787F738091F8
:10028000B3088F77682B70528091B1080994E09180
:100290007E08F0917F08BECFE0918208F09183083C
:1002A0003097A1F16091B3088091B1080994E09171
:1002B0008808F0918908309749F16091B3087091EE
:1002C000B4086138710510F060E870E085EB98E0E3
:1002D0000994E0918C08F0918D083097B9F08091E5
:1002E000B40820E8829FC001112480789F73209178
:1002F000B3082F77822B0994309741F08091B3088F
:100300000994E0919008F091910892CF0895AF92EE
:10031000BF92CF92DF92EF92FF920F931F93CF93F2
:10032000DF936C017B018B01040F151FEB015E0154
:10033000AE18BF08C017D10759F06991D601ED91E9
:10034000FC910190F081E02DC6010995892B79F788
:10035000C501DF91CF911F910F91FF90EF90DF903A
:10036000CF90BF90AF900895FC01538D448D252F01
:1003700030E0842F90E0821B930B541710F0CF963F
:10038000089501970895FC01918D828D981761F071
:10039000A28DAE0FBF2FB11D5D968C91928D9F5F88
:1003A0009F73928F90E008958FEF9FEF0895FC0167
:1003B000918D828D981731F0828DE80FF11D858D1A
:1003C00090E008958FEF9FEF0895FC01918D228DAD
:1003D000892F90E0805C9F4F821B91098F73992732
:1003E000089586E499E00E94E50121E0892B09F453
:1003F00020E0822F089580E090E0892B29F00E9470
:10040000F10181110C9400000895FC01A48DA80F46
:10041000B92FB11DA35ABF4F2C91848D90E0019646
:100420008F739927848FA689B7892C93A089B18966
:100430008C91837080648C93938D848D981306C007
:100440000288F389E02D80818F7D80830895EF926B
:10045000FF920F931F93CF93DF93EC0181E0888F7E
:100460009B8D8C8D98131AC0E889F989808185FF4E
:1004700015C09FB7F894EE89FF896083E889F989F0
:1004800080818370806480839FBF81E090E0DF91F2
:10049000CF911F910F91FF90EF900895F62E0B8D45
:1004A00010E00F5F1F4F0F731127E02E8C8D8E1100
:1004B0000CC00FB607FCFACFE889F989808185FF67
:1004C000F5CFCE010E940502F1CFEB8DEC0FFD2F91
:1004D000F11DE35AFF4FF0829FB7F8940B8FEA8922
:1004E000FB8980818062CFCFCF93DF93EC01888D31
:1004F0008823B9F0AA89BB89E889F9898C9185FD9F
:1005000003C0808186FD0DC00FB607FCF7CF8C912C
:1005100085FFF2CF808185FFEDCFCE010E940502DD
:10052000E9CFDF91CF910895DC018D919C91DC01A1
:10053000ED91FC910190F081E02D09948D3F60F4E4
:100540008A3F10F4883F51F4682F8091A008909161
:10055000A1080E94940202C08E3FB0F786E798E09F
:1005600008951F93CF93DF93C82F162FD42F813E6A
:1005700030F521502031E8F487FF1BC0622F682B33
:100580008091A0089091A1080E949402612F6F773A
:100590008091A0089091A1080E949402CF7EC03C57
:1005A00041F06D2F6F778091A0089091A1080E9473
:1005B000940286E798E0DF91CF911F910895883FDC
:1005C000C0F30E949E02F5CF87FF0AC09CE0980FFF
:1005D000923030F08D3F21F0803F18F4807F0895F5
:1005E00080E00895982F9F7E282F2F7C203839F0A7
:1005F000803E29F081E0903C19F080E0089581E090
:100600000895FC0101900020E9F73197AF01481BE4
:10061000590BBC0186E499E00C9487018F929F925C
:10062000AF92BF920F931F93CF93DF93CDB7DEB7F7
:10063000A1970FB6F894DEBF0FBECDBF19A242300E
:1006400008F44AE08E010F5D1F4F842E912CB12CCF
:10065000A12CA50194010E947C0AE62FB901CA01D0
:10066000EA30F4F4E05DD801EE938D01232B242BC6
:10067000252B79F790E080E0109719F0CD010E94CA
:100680000103A1960FB6F894DEBF0FBECDBFDF9178
:10069000CF911F910F91BF90AF909F908F90089531
:1006A000E95CE1CFCF92DF92EF92FF92CF93DF939D
:1006B0006C01990FEE08FF08F7FE19C06DE286E4A1
:1006C00099E00E942702EC0166277727CB016C197D
:1006D0007D098E099F094AE00E940E038C0F9D1F21
:1006E000DF91CF91FF90EF90DF90CF9008954AE097
:1006F000C701B601DF91CF91FF90EF90DF90CF90CF
:100700000C940E034F925F926F927F928F929F9202
:10071000AF92BF92CF92DF92EF92FF920F931F930F
:10072000CF936B017C01742EAC019B010E942B0DB9
:10073000882399F088E191E0CF911F910F91FF906C
:10074000EF90DF90CF90BF90AF909F908F907F9071
:100750006F905F904F900C94010346015701E8940D
:10076000B7F82FEF3FEF4FE75FE7C501B4010E94F5
:100770002B0D81110DC02FEF3FEF4FE75FE7C50154
:10078000B4010E94110B18161CF48CE191E0D4CF37
:100790002FEF3FEF4FE75FE4C701B6010E94690CFE
:1007A00018161CF480E291E0C7CF2FEF3FEF4FE720
:1007B0005FECC701B6010E94110B87FDF3CF20E06B
:1007C00030E0A901C701B6010E94110B10E000E062
:1007D00087FF0AC06DE286E499E00E9427028C013F
:1007E000F7FAF094F7F8F094C0E060E070E080E091
:1007F0009FE37C1641F020E030E040E251E40E94AB
:10080000160BCF5FF6CFA70196010E94A50A2B0118
:100810003C010E94880B4B015C014AE00E940E03E0
:100820007C01E00EF11ECC23C1F1C501B4010E9490
:10083000B70B9B01AC01C301B2010E94A40A4B019A
:100840005C016EE286E499E00E942702E80EF91E40
:10085000C15018F120E030E040E251E4C501B4019C
:100860000E946E0C2B013C010E94880B4B01B12CA5
:10087000A12C4AE0C501B4010E940E03E80EF91E46
:10088000C501B4010E94B70B9B01AC01C301B201C9
:100890000E94A40A4B015C01DBCFC701CF911F91DD
:1008A0000F91FF90EF90DF90CF90BF90AF909F900F
:1008B0008F907F906F905F904F900895CF93DF93CC
:1008C00042E00E948203EC0184E291E00E94010375
:1008D0008C0F9D1FDF91CF9108950C940103BF925F
:1008E000CF92DF92EF92FF920F931F93CF93DF93FC
:1008F000B62E062F10E0E801CC0FDD1FCC0FDD1F58
:10090000CE01845A994F6C01FC011082118212822F
:100910001382CE01845A9B4F7C01FC01108211820C
:1009200012821382C45ADD4F188219821A821B82E6
:10093000000F111F045A1E4FF8011182108287E226
:1009400091E00E946D046B2D70E090E080E04AE041
:100950000E940E038EE291E00E946D04F8018081F6
:1009600091810E9452038AE391E00E946D04F60196
:10097000608171818281938142E00E94820387E4D9
:1009800091E00E946D04688179818A819B810E9437
:100990005E0481E591E00E946D04F7016081718140
:1009A0008281938142E00E94820387E491E00E9469
:1009B0006D04688179818A819B81DF91CF911F913C
:1009C0000F91FF90EF90DF90CF90BF900C945E045A
:1009D0004F925F926F927F929F92AF92BF92CF920F
:1009E000DF92EF92FF920F931F93CF93DF93082F25
:1009F000162F942EC62FD0E0BE0165547109072E24
:100A0000000C880B990B0E94B90B20E030E040E409
:100A100051E40E94160B9B01AC0160E070E080E0A5
:100A200090E40E94DB0C2B013C012FB7F8946091FD
:100A300061087091620880916308909164082FBFEB
:100A40007E01EE0CFF1CEE0CFF1C9701245A394F5F
:100A500059010E94B70BF5016083718382839383F0
:100A60009701245A3B4F6901692D70E090E080E0C6
:100A70000E94B90B20E030E04EEF52E40E94160BCA
:100A8000F60160837183828393839701245A3D4FDB
:100A9000790120E030E04CED53E4C301B2010E9443
:100AA0006E0CF7016083718382839383CC0FDD1F0B
:100AB000C45ADE4F802F90E09983888387E291E0CB
:100AC0000E946D04612F70E090E080E04AE00E9497
:100AD0000E038EE291E00E946D04888199810E944C
:100AE00052038AE391E00E946D04F50160817181F7
:100AF0008281938142E00E94820387E491E00E9418
:100B00006D04F70160817181828193810E945E048E
:100B100081E591E00E946D04F6016081718182811E
:100B2000938142E00E94820387E491E00E946D0479
:100B3000F7016081718182819381DF91CF911F9153
:100B40000F91FF90EF90DF90CF90BF90AF909F906C
:100B50007F906F905F904F900C945E041F920F9265
:100B60000FB60F9211242F933F938F939F93AF93C0
:100B7000BF938091610890916208A0916308B09141
:100B800064083091600823E0230F2D3758F5019653
:100B9000A11DB11D209360088093610890936208A5
:100BA000A0936308B093640880915C0890915D08FD
:100BB000A0915E08B0915F080196A11DB11D8093C0
:100BC0005C0890935D08A0935E08B0935F08BF91A6
:100BD000AF919F918F913F912F910F900FBE0F90EA
:100BE0001F90189526E8230F0296A11DB11DD2CFA4
:100BF0001F920F920FB60F9211242F933F934F9392
:100C00005F936F937F938F939F93AF93BF93EF9374
:100C1000FF9386E499E00E940502FF91EF91BF9156
:100C2000AF919F918F917F916F915F914F913F9184
:100C30002F910F900FBE0F901F9018951F920F923B
:100C40000FB60F9211242F938F939F93EF93FF93DF
:100C5000E0915609F09157098081E0915C09F0918B
:100C60005D0982FD1BC0908180915F098F5F8F734A
:100C700020916009821741F0E0915F09F0E0EA5BA2
:100C8000F64F958F80935F09FF91EF919F918F9120
:100C90002F910F900FBE0F901F9018958081F4CF69
:100CA000E6E4F9E01382128288EE93E0A0E0B0E07F
:100CB00084839583A683B7838AE091E091838083C0
:100CC00085EC90E09587848784EC90E09787868711
:100CD00080EC90E0918B808B81EC90E0938B828B09
:100CE00082EC90E0958B848B86EC90E0978B868BE2
:100CF000118E128E138E148EF093E409E093E309A3
:100D0000E6E7F8E0118210821382128215821482C3
:100D1000178216821186108613861286158614860F
:100D200017861686118A108A138A128A158A148ADF
:100D3000178A168A118E108E138E128E158E148EAF
:100D4000178E168E11A210A213A212A215A214A21F
:100D500017A216A211A610A683EE99E093A782A768
:100D600014A615A616A613AA12AA15AA14AA8FEFDE
:100D70009FEF97AB86AB91AF80AF83E08093B008D5
:100D800013AE14AE15AE16AE10923509E5EBF8E0D1
:100D900080E8DF011D928A95E9F7109238091092D8
:100DA000390910923A0910923B0910923C091092AD
:100DB0003D0910923E0910923F091092400910928D
:100DC000410910924209109243091092440910926D
:100DD0004509E5E6F8E010821182128208957894C0
:100DE00084B5826084BD84B5816084BD85B5826030
:100DF00085BD85B5816085BD80916E0081608093E1
:100E00006E00109281008091810082608093810049
:100E10008091810081608093810080918000816059
:100E2000809380008091B10084608093B1008091B4
:100E3000B00081608093B00080917A0084608093DC
:100E40007A0080917A00826080937A0080917A00A3
:100E5000816080937A0080917A00806880937A0024
:100E60001092C100E0915609F091570922E02083C9
:100E7000E0915209F09153091082E0915409F091E8
:100E800055098FEC808310925E09E0915A09F09128
:100E90005B0996E09083E0915809F09159098081AF
:100EA00080618083E0915809F091590980818860C0
:100EB0008083E0915809F09159098081806880838E
:100EC000E0915809F091590980818F7D8083E091EC
:100ED000A008F091A1080190F081E02DA089B189CE
:100EE0002C93A485B5851C92A685B7858FE38C933A
:100EF000108EA489B5899C93A289B3898C91806155
:100F00008C93A289B3898C9188608C93A289B389D0
:100F10008C9180688C930288F389E02D80818F7D8D
:100F200080831092A2081092A4081092A308109235
:100F3000AB081092AA081092A9081092A8088FEF87
:100F40009FEF9093AD088093AC089093AF08809387
:100F5000AE082FB7F8948091610890916208A09133
:100F60006308B09164082FBF8093380990933909C2
:100F7000A0933A09B0933B09109235091092B20838
:100F80001092B1081092B3081092B4081092370969
:100F9000109236098091B0088170826081608093E0
:100FA000B00888EE94E090937D0880937C088FE6EB
:100FB00094E090937B0880937A0840E0442E40E0D0
:100FC000542E50E8E52EF12C7724739462E0C62E5F
:100FD000D12C01E010E073E0A72EB12C20E8322ED6
:100FE00030EF632E8090A20880E1881508F477C066
:100FF000E091A008F091A10880819181DC01ED9140
:10100000FC910084F185E02D0995892B09F467C0D6
:10101000809145098E7F80934509E091A008F09169
:10102000A10880819181DC01ED91FC910284F3851E
:10103000E02D0995C82F8D3F09F451C08091AA0871
:101040009091AB08009709F0FAC0C093A508D09121
:10105000A3088D2F0E94E4020E94F202882351F01F
:10106000C7FD08C0D093A508C093A6081093AB088D
:101070000093AA08C091A5088C2F0E94E402813F2A
:1010800009F4AAC008F044C0803B39F058F4803914
:1010900021F0803A11F0803861F4B092A908A09252
:1010A000A8089EC0803D09F497C028F5803C09F44B
:1010B00093C080914509816080934509E09178084B
:1010C000F0917908309709F009951092AB081092C9
:1010D000AA081092A9081092A8081092A308411417
:1010E000510409F47FCF0E94F101882309F476CFDF
:1010F0000E94000073CF803E81F2803FD1F6F092D3
:10110000A908E092A8081092A3088093B50868C0C7
:10111000873FA9F308F059C0833F09F45DC008F484
:10112000BCCF863F31F68093B2081092B10810927E
:10113000B3081092B408709235091092AB0810925F
:10114000AA081092A9081092A8088091B2088039C4
:1011500031F48091B408811102C03092B2088091BC
:10116000B2088058813630F48091B108881611F0A9
:10117000811002C00E94A1009091B008392F3170F7
:1011800090FFADCF892F8E7F09F4A9CF8091B2084F
:1011900020E8280F213608F028C12091B1088216D6
:1011A00019F031E0811030E09695923009F416C1C3
:1011B000933009F417C1913009F091CF4091B408F0
:1011C0006091B3080E94B1028ACF8D3F08F4ABCF83
:1011D0008E3F08F0A8CF6DCFD092A908C092A80882
:1011E0002091AA083091AB084091A8085091A90815
:1011F0004150510924173507D8F08093B208CF70B9
:10120000CF5FC093B1088091A6088093B308109275
:10121000B40810933709009336091092AB08109266
:10122000AA081092A9081092A808709235098DCFCB
:101230002F5F3F4F3093AB082093AA0850CFC7FFD2
:101240000CC0CD3F08F045C0C83F08F044C0C03FC7
:1012500009F44EC0C73F09F44BC02091A508FC011A
:10126000EA58F74F203F19F0273F09F068C0C7AF91
:10127000C091A808D091A9089E0121503109821778
:10128000930708F4A5C02090A508F0EF2F1619F0D9
:1012900087EF281256C0C0913409609234096092D9
:1012A000B2083092B3081092B4081092B108F092CC
:1012B0003709E0923609709235090E94A100A7EF24
:1012C000A093B508C093B608D092AB08C092AA0804
:1012D00006CFCE3F10F2C093B2081092B30810921E
:1012E000B4081092B10810933709009336099DCFC6
:1012F0002091B508203F19F0273F09F0DACE9C0174
:101300002F5F3F4F8A58974FFC01C7AF6092B208DA
:101310002093B3083093B4081092B1083093370982
:1013200020933609709235091092AB081092AA08E2
:101330001092A9081092A8081092A30806CFC7A778
:1013400097CF822D0E94E402982E8093B2080E94CB
:10135000F202882381F1822D8F708F5F8093B10814
:101360008091A6088093B3088091A708C330D10567
:1013700009F080E08093B408D0933709C093360910
:101380001092AB081092AA081092A9081092A8080F
:1013900070923509B0EB9B1659F0B91578F0E0E979
:1013A0009E1631F0F0EA9F1619F080E89812C4CF2B
:1013B0002092A308CACE1092B108D2CFA0ED9A16FF
:1013C000B9F3B0EE9B16A1F3E0EC9E12B5CFF0CFCF
:1013D00001969093AB088093AA0881CE332309F439
:1013E0007ECEECCE31117BCEE9CEE0E1E80FE031EC
:1013F00008F075CEF0E0E150F64F0C949E0A120A08
:101400005F0A410A2F0A6F086F080F0A6F080F0A58
:101410006F080F0A0F0A0F0A6F080F0A0F0A0E94BF
:101420009E025DCE8090B3089090B408F1E88F16CC
:10143000910418F090E8892E912CC6E7D8E0CE01EF
:10144000865798408815990508F049CE6FAD809170
:10145000A0089091A1080E9494022196F0CFC0911B
:10146000B30863EF8091A0089091A1080E949402B4
:101470006C2F6F778091A0089091A1080E94940230
:101480002ECEC091B40880E8C89FE001112480915D
:10149000B308C82B62EF8091A0089091A1080E9428
:1014A00094026C2F6F778091A0089091A1080E9400
:1014B0009402CC0FCD2FCC1FDD0BD195D9CF6091ED
:1014C000B308A0E16A9FB00111246077C091B4080D
:1014D000CF70C62B61EF8091A0089091A1080E9467
:1014E00094026C2FC7CF809168089091690800978B
:1014F00011F00C94010F0895A1E21A2EAA1BBB1B38
:10150000FD010DC0AA1FBB1FEE1FFF1FA217B307CF
:10151000E407F50720F0A21BB30BE40BF50B661FE5
:10152000771F881F991F1A9469F7609570958095A9
:1015300090959B01AC01BD01CF010895EE0FFF1FF7
:101540000590F491E02D09945058BB27AA270E94DA
:10155000BC0A0C942F0C0E94210C38F00E94280C1D
:1015600020F039F49F3F19F426F40C941E0C0EF46D
:10157000E095E7FB0C94180CE92F0E94400C58F3FF
:10158000BA17620773078407950720F079F4A6F568
:101590000C94620C0EF4E0950B2EBA2FA02D0B01CB
:1015A000B90190010C01CA01A0011124FF27591BA8
:1015B00099F0593F50F4503E68F11A16F040A22FAE
:1015C000232F342F4427585FF3CF4695379527951F
:1015D000A795F0405395C9F77EF41F16BA0B620B1E
:1015E000730B840BBAF09150A1F0FF0FBB1F661F65
:1015F000771F881FC2F70EC0BA0F621F731F841FA8
:1016000048F4879577956795B795F7959E3F08F0CD
:10161000B0CF9395880F08F09927EE0F979587958F
:1016200008950E94F40B08F481E008950E942A0BAB
:101630000C942F0C0E94280C58F00E94210C40F0B2
:1016400029F45F3F29F00C94180C51110C94630C91
:101650000C941E0C0E94400C68F39923B1F355239F
:1016600091F3951B550BBB27AA27621773078407B5
:1016700038F09F5F5F4F220F331F441FAA1FA9F34B
:1016800035D00E2E3AF0E0E832D091505040E69539
:10169000001CCAF72BD0FE2F29D0660F771F881F9A
:1016A000BB1F261737074807AB07B0E809F0BB0B8D
:1016B000802DBF01FF2793585F4F3AF09E3F5105A1
:1016C00078F00C94180C0C94630C5F3FE4F3983E94
:1016D000D4F3869577956795B795F7959F5FC9F78A
:1016E000880F911D9695879597F90895E1E0660F0B
:1016F000771F881FBB1F621773078407BA0720F084
:10170000621B730B840BBA0BEE1F88F7E0950895EC
:101710000E94480C88F09F5798F0B92F9927B7512D
:10172000B0F0E1F0660F771F881F991F1AF0BA9585
:10173000C9F714C0B13091F00E94620CB1E0089575
:101740000C94620C672F782F8827B85F39F0B93F67
:10175000CCF3869577956795B395D9F73EF4909538
:101760008095709561957F4F8F4F9F4F0895E894B6
:1017700009C097FB3EF490958095709561957F4FD9
:101780008F4F9F4F9923A9F0F92F96E9BB27939587
:10179000F695879577956795B795F111F8CFFAF497
:1017A000BB0F11F460FF1BC06F5F7F4F8F4F9F4FC8
:1017B00016C0882311F096E911C0772321F09EE826
:1017C000872F762F05C0662371F096E8862F70E08C
:1017D00060E02AF09A95660F771F881FDAF7880F66
:1017E0009695879597F90895990F0008550FAA0BBC
:1017F000E0E8FEEF16161706E807F907C0F0121624
:101800001306E407F50798F0621B730B840B950B26
:1018100039F40A2661F0232B242B252B21F408957B
:101820000A2609F4A140A6958FEF811D811D089518
:1018300097F99F6780E870E060E008959FEF80EC83
:10184000089500240A941616170618060906089526
:1018500000240A9412161306140605060895092E8C
:101860000394000C11F4882352F0BB0F40F4BF2BFB
:1018700011F460FF04C06F5F7F4F8F4F9F4F08953B
:1018800057FD9058440F551F59F05F3F71F0479531
:10189000880F97FB991F61F09F3F79F08795089516
:1018A000121613061406551FF2CF4695F1DF08C035
:1018B000161617061806991FF1CF86957105610552
:1018C00008940895E894BB2766277727CB0197F9FA
:1018D00008950E94F40B08F48FEF08950E94810C84
:1018E0000C942F0C0E94210C38F00E94280C20F040
:1018F000952311F00C94180C0C941E0C11240C94CC
:10190000630C0E94400C70F3959FC1F3950F50E05B
:10191000551F629FF001729FBB27F00DB11D639FA1
:10192000AA27F00DB11DAA1F649F6627B00DA11D47
:10193000661F829F2227B00DA11D621F739FB00DED
:10194000A11D621F839FA00D611D221F749F33275D
:10195000A00D611D231F849F600D211D822F762FF6
:101960006A2F11249F5750409AF0F1F088234AF0D3
:10197000EE0FFF1FBB1F661F771F881F915050403F
:10198000A9F79E3F510580F00C94180C0C94630C41
:101990005F3FE4F3983ED4F3869577956795B795C6
:1019A000F795E7959F5FC1F7FE2B880F911D9695E0
:1019B000879597F90895FA01EE0FFF1F30962105DC
:1019C0003105A1F16115710561F48038BFE39B0712
:1019D00049F168949038810561F08038BFEF9B072A
:1019E00041F099234AF5FF3FE1053105210519F141
:1019F000E8940894E795D901AA2329F4AB2FBE2FC8
:101A0000F85FD0F310C0FF5F70F4A695E0F7F739E8
:101A100050F019F0FF3A38F49F779F930DD00F9054
:101A200007FC9058089546F00C941E0C60E070E09E
:101A300080E89FE308954FE79F775F934F933F932D
:101A40002F930E94DB0D2F913F914F915F910E9448
:101A50006E0C0C94380D0E94F40B880B990B0895B2
:101A600029F416F00C94180C0C94620C0C941E0CB7
:101A70000E94480CA8F39638A0F707F80F92E89454
:101A80002BE33AEA48EB5FE70E94840C0F920F9237
:101A90000F924DB75EB70F920E94230EE8E6F0E07A
:101AA0000E946A0D4F915F91EF91FF91E595EE1FB6
:101AB000FF1F49F0FE57E0684427EE0F441FFA95D8
:101AC000E1F74195550B0E949D0D0F9007FE0C9478
:101AD000910D0895DF93CF931F930F93FF92EF9291
:101AE000DF927B018C01689406C0DA2EEF010E9420
:101AF000810CFE01E894A591259135914591559170
:101B0000A6F3EF010E94BC0AFE019701A801DA9436
:101B100069F7DF90EF90FF900F911F91CF91DF91C8
:101B200008959B01AC0160E070E080E89FE30C94B5
:101B3000160B0C94180C0C94570E0E94480CD8F3FA
:101B40009923C9F3940F511DA3F39150504094F081
:101B500059F0882332F0660F771F881F915050404C
:101B6000C1F79E3F51052CF7880F911D96958795DB
:101B700097F908955F3FACF0983E9CF0BB2786959F
:101B800077956795B79508F4B1609395C1F7BB0F4A
:101B900058F711F460FFE8CF6F5F7F4F8F4F9F4F73
:101BA000E3CF0C94630C16F00C94570E0C941E0C9F
:101BB00068940C94180C0E94480CA8F39923C1F364
:101BC000AEF3DF93CF931F930F93FF92C92FDD27BF
:101BD00088232AF02197660F771F881FDAF720E005
:101BE00030E040E85FEB9FE3883920F0803E38F03A
:101BF00021968F770E94A50AE0E9F0E004C00E94D8
:101C0000A50AEDEBF0E00E946A0D8B01BE01EC012C
:101C1000FB2E6F5771097595771F880B990B0E94E2
:101C2000B90B28E132E741E35FE30E94810CAF2D5D
:101C30009801AE01FF900F911F91CF91DF910E940B
:101C4000BC0A0C942F0CFA01DC01AA0FBB1F9B01EC
:101C5000AC01BF5728F4222733274427507820C0EF
:101C6000B75190F4AB2F0024469537952795011C6A
:101C7000A395D2F3002071F0220F331F441FB395B8
:101C8000DAF30ED00C94A40A61307105A0E88A073B
:101C9000B94630F49B01AC016627772788279078F6
:101CA000309621F0208331834283538308959F3FF0
:101CB00031F0915020F4879577956795B795880F07
:101CC000911D9695879597F908950F931F93CF933C
:101CD000DF938230910510F482E090E0E091E70913
:101CE000F091E80930E020E0B0E0A0E0309799F40E
:101CF0002115310509F44AC0281B390B2430310560
:101D0000D8F58A819B816115710589F1FB01938367
:101D10008283FE0111C040815181028113814817E5
:101D20005907E0F04817590799F4109761F0129697
:101D30000C93129713961C933296CF01DF91CF919B
:101D40001F910F9108950093E7091093E809F4CFCC
:101D50002115310551F04217530738F0A901DB0175
:101D60009A01BD01DF01F801C1CFEF01F9CF9093D6
:101D7000E8098093E709CDCFFE01E20FF31F8193BD
:101D800091932250310939832883D7CF2091E509D7
:101D90003091E609232B41F4209102013091030197
:101DA0003093E6092093E50920910001309101016B
:101DB0002115310541F42DB73EB7409104015091F2
:101DC0000501241B350BE091E509F091E609E217C6
:101DD000F307A0F42E1B3F0B2817390778F0AC014E
:101DE0004E5F5F4F2417350748F04E0F5F1F50932B
:101DF000E6094093E509819391939FCFF0E0E0E0FD
:101E00009CCFCF93DF930097E9F0FC0132971382C8
:101E10001282A091E709B091E809ED0130E020E0DD
:101E20001097A1F420813181820F931F2091E50941
:101E30003091E6092817390709F061C0F093E609E7
:101E4000E093E509DF91CF910895EA01CE17DF070E
:101E5000E8F54A815B819E0141155105B1F7E90121
:101E6000FB83EA8349915991C40FD51FEC17FD07F5
:101E700061F4808191810296840F951FE901998315
:101E80008883828193819B838A83F0E0E0E01296CD
:101E90008D919C9113970097B9F52D913C911197D5
:101EA000CD010296820F931F2091E5093091E6093A
:101EB0002817390739F6309751F51092E809109232
:101EC000E709B093E609A093E509BCCFD383C283A9
:101ED00040815181840F951FC817D90761F44E5F67
:101EE0005F4F88819981480F591F518340838A81B0
:101EF0009B81938382832115310509F0B0CFF09344
:101F0000E809E093E7099ECFFD01DC01C0CF138211
:101F10001282D7CF10E0C6E7D0E004C0FE010E94D5
:0E1F20009E0A2196C737D107C9F7F894FFCF64
:101F2E000000E90980000000000027028701B401CB
:101F3E007402E501C301D7016E616E00696E660021
:101F4E006F7666000D0A004E6F74653A20002C20E5
:101F5E004368616E6E656C3A20002C204475726188
:101F6E0074696F6E3A20002C2050697463683A20B1
:0C1F7E00002C20566F6C756D653A200039
:00000001FF
