:100000000C9476000C949E000C949E000C949E0020
:100010000C949E000C949E000C949E000C949E00E8
:100020000C949E000C949E000C949E000C949E00D8
:100030000C949E000C949E000C949E000C949E00C8
:100040000C9411050C949E000C9481050C945B0596
:100050000C949E000C949E000C949E000C949E00A8
:100060000C949E000C949E0007634236B79BD8A761
:100070001A39685618AEBAAB558C1D3CB7CC5763CD
:10008000BD6DEDFD753EF6177231BF000000803F7B
:1000900008000000BE922449123EABAAAA2ABECD97
:1000A000CCCC4C3E00000080BEABAAAAAA3E000009
:1000B0000000BF000000803F000000000008417801
:1000C000D3BB4387D1133D190E3CC3BD4282AD2B38
:1000D0003E68EC8276BED98FE1A93E4C80EFFFBE30
:1000E00001C4FF7F3F0000000000B30511241FBEC4
:1000F000CFEFD8E0DEBFCDBF11E0A0E0B1E0ECEF84
:10010000F7E102C005900D92AC35B107D9F72AE0AE
:10011000ACE5B1E001C01D92A238B207E1F710E0F2
:10012000C6E7D0E004C02197FE010E943508C5371C
:10013000D107C9F70E944D060C94FC0B0C940000EB
:100140003FB7F89480910F0990911009A09111097F
:10015000B091120926B5A89B05C02F3F19F0019652
:10016000A11DB11D3FBFBA2FA92F982F8827BC0111
:10017000CD01620F711D811D911D42E0660F771F39
:10018000881F991F4A95D1F708952FB7F894609169
:100190000B0970910C0980910D0990910E092FBFE8
:1001A0000895AF92BF92CF92DF92EF92FF920F939A
:1001B0001F93CF93DF936C017B018B01040F151FFD
:1001C000EB015E01AE18BF08C017D10759F0699165
:1001D000D601ED91FC910190F081E02DC6010995C9
:1001E000892B79F7C501DF91CF911F910F91FF9076
:1001F000EF90DF90CF90BF90AF900895FC01538DAA
:10020000448D252F30E0842F90E0821B930B5417F0
:1002100010F0CF96089501970895FC01918D828D7D
:10022000981761F0A28DAE0FBF2FB11D5D968C9116
:10023000928D9F5F9F73928F90E008958FEF9FEF55
:100240000895FC01918D828D981731F0828DE80F11
:10025000F11D858D90E008958FEF9FEF0895FC01CB
:10026000918D228D892F90E0805C9F4F821B910998
:100270008F739927089583EE99E00E942F0121E062
:10028000892B09F420E0822F089580E090E0892BEB
:1002900029F00E943B0181110C9400000895FC019B
:1002A000A48DA80FB92FB11DA35ABF4F2C91848DD7
:1002B00090E001968F739927848FA689B7892C9334
:1002C000A089B1898C91837080648C93938D848D87
:1002D000981306C00288F389E02D80818F7D80838A
:1002E0000895EF92FF920F931F93CF93DF93EC014A
:1002F00081E0888F9B8D8C8D98131AC0E889F989CD
:10030000808185FF15C09FB7F894EE89FF896083CF
:10031000E889F98980818370806480839FBF81E050
:1003200090E0DF91CF911F910F91FF90EF90089592
:10033000F62E0B8D10E00F5F1F4F0F731127E02E6D
:100340008C8D8E110CC00FB607FCFACFE889F989A5
:10035000808185FFF5CFCE010E944F01F1CFEB8D5B
:10036000EC0FFD2FF11DE35AFF4FF0829FB7F89479
:100370000B8FEA89FB8980818062CFCFCF93DF9397
:10038000EC01888D8823B9F0AA89BB89E889F989AD
:100390008C9185FD03C0808186FD0DC00FB607FCE2
:1003A000F7CF8C9185FFF2CF808185FFEDCFCE0115
:1003B0000E944F01E9CFDF91CF910895DC018D912B
:1003C0009C91DC01ED91FC910190F081E02D09946C
:1003D000FC0101900020E9F73197AF01481B590B50
:1003E000BC0183EE99E00C94D1008F929F92AF9262
:1003F000BF920F931F93CF93DF93CDB7DEB7A19733
:100400000FB6F894DEBF0FBECDBF19A2423008F47C
:100410004AE08E010F5D1F4F842E912CB12CA12C30
:10042000A50194010E94FF07E62FB901CA01EA3035
:10043000F4F4E05DD801EE938D01232B242B252BC2
:1004400079F790E080E0109719F0CD010E94E80163
:10045000A1960FB6F894DEBF0FBECDBFDF91CF914E
:100460001F910F91BF90AF909F908F900895E95C7E
:10047000E1CF0C94E8014F925F926F927F928F923E
:100480009F92AF92BF92CF92DF92EF92FF920F9323
:100490001F93CF936B017C01742EAC019B010E94D2
:1004A000C20A882399F082E191E0CF911F910F91C8
:1004B000FF90EF90DF90CF90BF90AF909F908F9084
:1004C0007F906F905F904F900C94E8014601570128
:1004D000E894B7F82FEF3FEF4FE75FE7C501B401AE
:1004E0000E94C20A81110DC02FEF3FEF4FE75FE777
:1004F000C501B4010E94A80818161CF486E191E019
:10050000D4CF2FEF3FEF4FE75FE4C701B6010E9462
:10051000000A18161CF48AE191E0C7CF2FEF3FEFD5
:100520004FE75FECC701B6010E94A80887FDF3CF33
:1005300020E030E0A901C701B6010E94A80810E040
:1005400000E087FF0AC06DE283EE99E00E9471012E
:100550008C01F7FAF094F7F8F094C0E060E070E0F6
:1005600080E09FE37C1641F020E030E040E251E47F
:100570000E94AD08CF5FF6CFA70196010E943C080C
:100580002B013C010E941F094B015C014AE00E94C3
:10059000F5017C01E00EF11ECC23C1F1C501B401CF
:1005A0000E944E099B01AC01C301B2010E943B08AD
:1005B0004B015C016EE283EE99E00E947101E80E4E
:1005C000F91EC15018F120E030E040E251E4C501CD
:1005D000B4010E94050A2B013C010E941F094B0136
:1005E000B12CA12C4AE0C501B4010E94F501E80E2E
:1005F000F91EC501B4010E944E099B01AC01C30163
:10060000B2010E943B084B015C01DBCFC701CF91D7
:100610001F910F91FF90EF90DF90CF90BF90AF9020
:100620009F908F907F906F905F904F900895CF92A2
:10063000DF92EF92FF92CF93DF936C01990FEE0858
:10064000FF08F7FE19C06DE283EE99E00E94710188
:10065000EC0166277727CB016C197D098E099F096C
:100660004AE00E94F5018C0F9D1FDF91CF91FF9012
:10067000EF90DF90CF9008954AE0C701B601DF9177
:10068000CF91FF90EF90DF90CF900C94F5018F9277
:100690009F92AF92BF92CF92DF92EF92FF920F9311
:1006A0001F93CF93DF93C62ED42EC62FD0E08E019A
:1006B000000F111F000F111F9801205A394F4901D7
:1006C000F90110821182128213829801205A3B4F45
:1006D0005901F9011082118212821382005A1D4FB2
:1006E000F8011082118212821382CE01880F991FA5
:1006F0009C01205A3E4F7901F901118210828EE14E
:1007000091E00E9439026C2D70E090E080E04AE0B8
:100710000E94F50185E291E00E943902F701808193
:1007200091810E94170381E391E00E943902F40154
:10073000608171818281938142E00E943B028EE35D
:1007400091E00E943902F801608171818281938178
:1007500042E00E943B0288E491E00E94E8018BE4C1
:1007600091E00E943902F50160817181828193815B
:1007700042E00E943B02BE0165547109072E000C45
:10078000880B990B0E94500920E030E040E451E4CE
:100790000E94AD089B01AC0160E070E080E090E455
:1007A0000E94720A20E030E04CED53E40E94050AFA
:1007B0004B015C0120E030E048E452E40E94000A72
:1007C00087FD28C020E030E04AE753E4C501B401CA
:1007D0000E94A8081816F4F06D2D70E090E080E0FB
:1007E0000E94500920E030E04EEF52E40E94AD0834
:1007F00021E834E045E35FE30E94000A87FD0AC078
:100800000E94C50060935C0170935D0180935E015E
:1008100090935F0180915C0190915D01A0915E01D8
:10082000B0915F01B095A095909581959F4FAF4F86
:10083000BF4F8093640890936508A0936608B093B7
:100840006708DF91CF911F910F91FF90EF90DF909C
:10085000CF90BF90AF909F908F9008952F923F922E
:100860004F925F926F927F928F929F92AF92BF92C0
:10087000CF92DF92EF92FF920F931F93CF93DF936C
:10088000282E362E642F70E090E080E00E94500900
:1008900020E030E04EEF52E40E94AD084B015C01D5
:1008A000C32DD0E0BE0165547109072E000C880BE2
:1008B000990B0E94500920E030E040E451E40E948E
:1008C000AD089B01AC0160E070E080E090E40E9424
:1008D000720A20E030E04CED53E40E94050A6B01FF
:1008E0007C010E94C5008E01000F111F000F111F17
:1008F0009801205A394F39010E944E09F301608353
:100900007183828393839801205A3B4F2901F90117
:1009100080829182A282B382005A1D4FF801C08268
:10092000D182E282F382CC0FDD1FC05ADE4F822DCE
:1009300090E0998388838EE191E00E943902632DD3
:1009400070E090E080E04AE00E94F50185E291E0ED
:100950000E943902888199810E94170381E391E006
:100960000E943902F301608171818281938142E0AA
:100970000E943B028EE391E00E943902F8016081FF
:1009800071818281938142E00E943B0288E491E080
:100990000E94E8018BE491E00E943902F20160813B
:1009A00071818281938142E00E943B0220E030E02D
:1009B00048E452E4C701B6010E94000A87FD1EC048
:1009C00020E030E04AE753E4C701B6010E94A808DE
:1009D0001816A4F021E834E045E35FE3C501B40153
:1009E0000E94000A87FD0AC00E94C50060935C0156
:1009F00070935D0180935E0190935F01DF91CF91D1
:100A00001F910F91FF90EF90DF90CF90BF90AF902C
:100A10009F908F907F906F905F904F903F902F901E
:100A200008951F920F920FB60F9211242F933F93A8
:100A30008F939F93AF93BF9380910B0990910C0973
:100A4000A0910D09B0910E0930910A0923E0230FFE
:100A50002D3758F50196A11DB11D20930A098093E9
:100A60000B0990930C09A0930D09B0930E09809186
:100A70000F0990911009A0911109B09112090196E6
:100A8000A11DB11D80930F0990931009A093110926
:100A9000B0931209BF91AF919F918F913F912F9188
:100AA0000F900FBE0F901F90189526E8230F029607
:100AB000A11DB11DD2CF1F920F920FB60F9211241C
:100AC0002F933F934F935F936F937F938F939F9356
:100AD000AF93BF93EF93FF9383EE99E00E944F0192
:100AE000FF91EF91BF91AF919F918F917F916F9106
:100AF0005F914F913F912F910F900FBE0F901F90DC
:100B000018951F920F920FB60F9211242F938F9367
:100B10009F93EF93FF93E091F309F091F4098081A3
:100B2000E091F909F091FA0982FD1BC09081809152
:100B3000FC098F5F8F732091FD09821741F0E091CE
:100B4000FC09F0E0ED51F64F958F8093FC09FF9181
:100B5000EF919F918F912F910F900FBE0F901F904B
:100B600018958081F4CFE3EEF9E01382128288EECB
:100B700093E0A0E0B0E084839583A683B78384E00C
:100B800091E09183808385EC90E09587848784EC65
:100B900090E09787868780EC90E0918B808B81EC4A
:100BA00090E0938B828B82EC90E0958B848B86EC2B
:100BB00090E0978B868B118E128E138E148EF0938D
:100BC000810AE093800AE3E1F9E011821082138246
:100BD000128215821482178216821186108613865D
:100BE00012861586148617861686118A108A138A2D
:100BF000128A158A148A178A168A118E108E138EFD
:100C0000128E158E148E178E168E11A210A213A29C
:100C100012A215A214A217A216A211A610A680E86D
:100C20009AE093A782A714A615A616A613AA12AA3D
:100C300015AA14AA8FEF9FEF97AB86AB91AF80AF49
:100C400083E080934D0913AE14AE15AE16AE10922C
:100C5000D209E2E5F9E080E8DF011D928A95E9F723
:100C60001092D5091092D6091092D7091092D8097E
:100C70001092D9091092DA091092DB091092DC095E
:100C80001092DD091092DE091092DF091092E0093E
:100C90001092E1091092E2090895789484B5826077
:100CA00084BD84B5816084BD85B5826085BD85B510
:100CB000816085BD80916E00816080936E0010928E
:100CC0008100809181008260809381008091810009
:100CD000816080938100809180008160809380009A
:100CE0008091B10084608093B1008091B0008160F8
:100CF0008093B00080917A00846080937A00809124
:100D00007A00826080937A0080917A00816080937B
:100D10007A0080917A00806880937A001092C100F6
:100D2000E091F309F091F40982E08083E091EF090A
:100D3000F091F0091082E091F109F091F2098FEC45
:100D400080831092FB09E091F709F091F80986E0A1
:100D50008083E091F509F091F609808180618083BC
:100D6000E091F509F091F609808188608083E09137
:100D7000F509F091F609808180688083E091F5099A
:100D8000F091F60980818F7D80838EE294E09093CC
:100D90001A098093190987E493E0909318098093C6
:100DA00017099AE8492E512C612C712C20E0222E33
:100DB00020E0322E83EE99E00E942F01892B91F0E2
:100DC00083EE99E00E940D01EAE6F8E0D0E0C0E091
:100DD00020813181232B09F4B8C021963896C43183
:100DE000D105B1F7CAE6D8E00881198101151105CE
:100DF00009F45DC00E94C500CC80DD80EE80FF80DC
:100E0000DC01CB018C199D09AE09BF098534910520
:100E1000A105B10508F44BC073016201C81AD90AD3
:100E2000EA0AFB0AF9F00E94A0004B015C010E9453
:100E3000A000681979098A099B09683E73408105F9
:100E40009105A8F321E0C21AD108E108F10888EE63
:100E5000880E83E0981EA11CB11CC114D104E104CA
:100E6000F10429F76A8161506031B0F460688091C3
:100E70003D0990913E090E94DE01602F6F778091BD
:100E80003D0990913E090E94DE0160E080913D099C
:100E900090913E090E94DE011982188280916808B3
:100EA0009091690801979093690880936808289643
:100EB0008AE099E08C179D0709F096CF0E94C50043
:100EC000683E734081059105A0F1609164087091BE
:100ED0006508809166089091670861157105810524
:100EE000910539F10E944E099B01AC0160E070E66A
:100EF0008AE697E40E94AD080E941F09609360088B
:100F000070936108809362089093630886E591E08E
:100F10000E943902609160087091610880916208B6
:100F2000909163084AE00E94F50188E491E00E94F4
:100F3000E8012114310409F43DCF0E943B018823CC
:100F400009F438CF0E94000035CFE82E880FFF0843
:100F50008CE0E80EF11C83E0CC0FDD1F8A95E1F7F1
:100F6000C659D74FF982E882809168089091690844
:100F700060E170E00E94EB078C010F5F1F4F1B8345
:100F80000A830E94C5006C837D838E839F830150FA
:100F90000031B8F4602F606980913D0990913E095D
:100FA0000E94DE016E2D6F7780913D0990913E0980
:100FB0000E94DE016FE780913D0990913E090E94F9
:100FC000DE01809168089091690801969093690804
:100FD0008093680807CF97FB072E16F4009407D07C
:100FE00077FD09D00E94210807FC05D03EF49095BA
:100FF00081959F4F0895709561957F4F0895A1E267
:101000001A2EAA1BBB1BFD010DC0AA1FBB1FEE1F82
:10101000FF1FA217B307E407F50720F0A21BB30BCD
:10102000E40BF50B661F771F881F991F1A9469F749
:1010300060957095809590959B01AC01BD01CF01A5
:101040000895AA1BBB1B51E107C0AA1FBB1FA6170F
:10105000B70710F0A61BB70B881F991F5A95A9F761
:1010600080959095BC01CD010895EE0FFF1F05906E
:10107000F491E02D09945058BB27AA270E945308E9
:101080000C94C6090E94B80938F00E94BF0920F0EC
:1010900039F49F3F19F426F40C94B5090EF4E09549
:1010A000E7FB0C94AF09E92F0E94D70958F3BA1750
:1010B000620773078407950720F079F4A6F50C946E
:1010C000F9090EF4E0950B2EBA2FA02D0B01B901F2
:1010D00090010C01CA01A0011124FF27591B99F0AE
:1010E000593F50F4503E68F11A16F040A22F232FBA
:1010F000342F4427585FF3CF469537952795A7950A
:10110000F0405395C9F77EF41F16BA0B620B730BB0
:10111000840BBAF09150A1F0FF0FBB1F661F771F21
:10112000881FC2F70EC0BA0F621F731F841F48F4D6
:10113000879577956795B795F7959E3F08F0B0CF5F
:101140009395880F08F09927EE0F97958795089546
:101150000E948B0908F481E008950E94C1080C9454
:10116000C6090E94BF0958F00E94B80940F029F44E
:101170005F3F29F00C94AF0951110C94FA090C94BB
:10118000B5090E94D70968F39923B1F3552391F368
:10119000951B550BBB27AA2762177307840738F0E6
:1011A0009F5F5F4F220F331F441FAA1FA9F335D043
:1011B0000E2E3AF0E0E832D091505040E695001CF7
:1011C000CAF72BD0FE2F29D0660F771F881FBB1FB1
:1011D000261737074807AB07B0E809F0BB0B802D8F
:1011E000BF01FF2793585F4F3AF09E3F510578F0BB
:1011F0000C94AF090C94FA095F3FE4F3983ED4F3E2
:10120000869577956795B795F7959F5FC9F7880F8E
:10121000911D9695879597F90895E1E0660F771FE0
:10122000881FBB1F621773078407BA0720F0621B71
:10123000730B840BBA0BEE1F88F7E09508950E949C
:10124000DF0988F09F5798F0B92F9927B751B0F070
:10125000E1F0660F771F881F991F1AF0BA95C9F73A
:1012600014C0B13091F00E94F909B1E008950C94D6
:10127000F909672F782F8827B85F39F0B93FCCF389
:10128000869577956795B395D9F73EF490958095B7
:10129000709561957F4F8F4F9F4F0895E89409C0D7
:1012A00097FB3EF490958095709561957F4F8F4F99
:1012B0009F4F9923A9F0F92F96E9BB279395F695AF
:1012C000879577956795B795F111F8CFFAF4BB0F2D
:1012D00011F460FF1BC06F5F7F4F8F4F9F4F16C091
:1012E000882311F096E911C0772321F09EE8872F1B
:1012F000762F05C0662371F096E8862F70E060E0D7
:101300002AF09A95660F771F881FDAF7880F96954F
:10131000879597F90895990F0008550FAA0BE0E8F3
:10132000FEEF16161706E807F907C0F012161306A7
:10133000E407F50798F0621B730B840B950B39F4E7
:101340000A2661F0232B242B252B21F408950A264D
:1013500009F4A140A6958FEF811D811D089597F98D
:101360009F6780E870E060E008959FEF80EC08954B
:1013700000240A9416161706180609060895002474
:101380000A9412161306140605060895092E0394EE
:10139000000C11F4882352F0BB0F40F4BF2B11F462
:1013A00060FF04C06F5F7F4F8F4F9F4F089557FDC1
:1013B0009058440F551F59F05F3F71F04795880FC3
:1013C00097FB991F61F09F3F79F08795089512165A
:1013D00013061406551FF2CF4695F1DF08C0161606
:1013E00017061806991FF1CF8695710561050894B7
:1013F0000895E894BB2766277727CB0197F90895CE
:101400000E948B0908F48FEF08950E94180A0C942B
:10141000C6090E94B80938F00E94BF0920F0952340
:1014200011F00C94AF090C94B50911240C94FA092D
:101430000E94D70970F3959FC1F3950F50E0551F97
:10144000629FF001729FBB27F00DB11D639FAA2719
:10145000F00DB11DAA1F649F6627B00DA11D661F68
:10146000829F2227B00DA11D621F739FB00DA11D89
:10147000621F839FA00D611D221F749F3327A00D43
:10148000611D231F849F600D211D822F762F6A2FDF
:1014900011249F5750409AF0F1F088234AF0EE0F44
:1014A000FF1FBB1F661F771F881F91505040A9F771
:1014B0009E3F510580F00C94AF090C94FA095F3FF0
:1014C000E4F3983ED4F3869577956795B795F795AD
:1014D000E7959F5FC1F7FE2B880F911D9695879525
:1014E00097F90895FA01EE0FFF1F30962105310597
:1014F000A1F16115710561F48038BFE39B0749F1E3
:1015000068949038810561F08038BFEF9B0741F007
:1015100099234AF5FF3FE1053105210519F1E894CA
:101520000894E795D901AA2329F4AB2FBE2FF85FC1
:10153000D0F310C0FF5F70F4A695E0F7F73950F0D4
:1015400019F0FF3A38F49F779F930DD00F9007FC66
:101550009058089546F00C94B50960E070E080E87A
:101560009FE308954FE79F775F934F933F932F93A8
:101570000E94720B2F913F914F915F910E94050A3B
:101580000C94CF0A0E948B09880B990B089529F4BB
:1015900016F00C94AF090C94F9090C94B5090E944B
:1015A000DF09A8F39638A0F707F80F92E8942BE329
:1015B0003AEA48EB5FE70E941B0A0F920F920F92E4
:1015C0004DB75EB70F920E94BA0BE8E6F0E00E94BA
:1015D000010B4F915F91EF91FF91E595EE1FFF1F7A
:1015E00049F0FE57E0684427EE0F441FFA95E1F7F3
:1015F0004195550B0E94340B0F9007FE0C94280B5D
:101600000895DF93CF931F930F93FF92EF92DF9292
:101610007B018C01689406C0DA2EEF010E94180A43
:10162000FE01E894A5912591359145915591A6F338
:10163000EF010E945308FE019701A801DA9469F7AF
:10164000DF90EF90FF900F911F91CF91DF91089560
:101650009B01AC0160E070E080E89FE30C94AD0872
:101660000C94AF090C94EE0B0E94DF09D8F3992378
:10167000C9F3940F511DA3F39150504094F059F0C9
:10168000882332F0660F771F881F91505040C1F7B2
:101690009E3F51052CF7880F911D9695879597F9D8
:1016A00008955F3FACF0983E9CF0BB2786957795F8
:1016B0006795B79508F4B1609395C1F7BB0F58F7DC
:1016C00011F460FFE8CF6F5F7F4F8F4F9F4FE3CFE5
:1016D0000C94FA0916F00C94EE0B0C94B50968946E
:1016E0000C94AF090E94DF09A8F39923C1F3AEF36C
:1016F000DF93CF931F930F93FF92C92FDD2788238A
:101700002AF02197660F771F881FDAF720E030E074
:1017100040E85FEB9FE3883920F0803E38F0219667
:101720008F770E943C08E0E9F0E004C00E943C088A
:10173000EDEBF0E00E94010B8B01BE01EC01FB2EF2
:101740006F5771097595771F880B990B0E94500987
:1017500028E132E741E35FE30E94180AAF2D9801C8
:10176000AE01FF900F911F91CF91DF910E9453081E
:101770000C94C609FA01DC01AA0FBB1F9B01AC0146
:10178000BF5728F4222733274427507820C0B75169
:1017900090F4AB2F0024469537952795011CA3950F
:1017A000D2F3002071F0220F331F441FB395DAF3F8
:1017B0000ED00C943B0861307105A0E88A07B94649
:1017C00030F49B01AC016627772788279078309604
:1017D00021F0208331834283538308959F3F31F06A
:1017E000915020F4879577956795B795880F911D4F
:0C17F0009695879597F90895F894FFCF1F
:1017FC00000000007101D100FE00BE012F010D019F
:10180C0021016E616E00696E66006F7666004E6F28
:10181C0074653A20002C204368616E6E656C3A202A
:10182C00002C204475726174696F6E3A20002C2074
:10183C0050697463683A20000D0A002C20566F6CB6
:0C184C00756D653A200042504D3A2000B6
:00000001FF
