:100000000C9445000C946D000C946D000C946D00E4
:100010000C946D000C946D000C946D000C946D00AC
:100020000C946D000C946D000C946D000C946D009C
:100030000C946D000C946D000C946D000C946D008C
:100040000C949E080C946D000C940E090C94E80816
:100050000C946D000C946D000C946D000C946D006C
:100060000C946D000C946D0005A84CCDB2D44EB923
:100070003836A9020C50B9918688083CA6AAAA2A4B
:10008000BE000000803F40090C0A11241FBECFEFC4
:10009000D8E0DEBFCDBF11E0A0E0B1E0EAE0FDE1D5
:1000A00002C005900D92AA32B107D9F729E0AAE261
:1000B000B1E001C01D92A53EB207E1F710E0C4E433
:1000C000D0E004C02197FE010E94370AC334D10753
:1000D000C9F70E9487090C94780E0C9400003FB772
:1000E000F89480912F0190913001A0913101B0914D
:1000F000320126B5A89B05C02F3F19F00196A11D1E
:10010000B11D3FBFBA2FA92F982F8827BC01CD0161
:10011000620F711D811D911D42E0660F771F881FC0
:10012000991F4A95D1F70895AF92BF92CF92DF926F
:10013000EF92FF920F931F93CF93DF936C017B019C
:100140008B01040F151FEB015E01AE18BF08C0172D
:10015000D10759F06991D601ED91FC910190F081A0
:10016000E02DC6010995892B79F7C501DF91CF9163
:100170001F910F91FF90EF90DF90CF90BF90AF90C5
:100180000895FC01538D448D252F30E0842F90E09D
:10019000821B930B541710F0CF9608950197089582
:1001A000FC01918D828D981761F0A28DAE0FBF2F4B
:1001B000B11D5D968C91928D9F5F9F73928F90E0A1
:1001C00008958FEF9FEF0895FC01918D828D981710
:1001D00031F0828DE80FF11D858D90E008958FEF4D
:1001E0009FEF0895FC01918D228D892F90E0805C16
:1001F0009F4F821B91098F739927089583E391E0A4
:100200000E94F20021E0892B09F420E0822F08955A
:1002100080E090E0892B29F00E94FE0081110C946F
:1002200000000895FC01A48DA80FB92FB11DA35A99
:10023000BF4F2C91848D90E001968F739927848F06
:10024000A689B7892C93A089B1898C918370806429
:100250008C93938D848D981306C00288F389E02DCA
:1002600080818F7D80830895EF92FF920F931F937B
:10027000CF93DF93EC0181E0888F9B8D8C8D981359
:100280001AC0E889F989808185FF15C09FB7F89465
:10029000EE89FF896083E889F989808183708064B1
:1002A00080839FBF81E090E0DF91CF911F910F91FC
:1002B000FF90EF900895F62E0B8D10E00F5F1F4F0B
:1002C0000F731127E02E8C8D8E110CC00FB607FC1A
:1002D000FACFE889F989808185FFF5CFCE010E94A8
:1002E0001201F1CFEB8DEC0FFD2FF11DE35AFF4F03
:1002F000F0829FB7F8940B8FEA89FB898081806236
:10030000CFCFCF93DF93EC01888D8823B9F0AA89F2
:10031000BB89E889F9898C9185FD03C0808186FDC0
:100320000DC00FB607FCF7CF8C9185FFF2CF80810F
:1003300085FFEDCFCE010E941201E9CFDF91CF9171
:100340000895FC0101900020E9F73197AF01481BA7
:10035000590BBC0183E391E00C9494008F929F921F
:10036000AF92BF920F931F93CF93DF93CDB7DEB7BA
:10037000A1970FB6F894DEBF0FBECDBF19A24230D1
:1003800008F44AE08E010F5D1F4F842E912CB12C92
:10039000A12CA50194010E94150AE62FB901CA01FA
:1003A000EA30F4F4E05DD801EE938D01232B242B89
:1003B000252B79F790E080E0109719F0CD010E948D
:1003C000A101A1960FB6F894DEBF0FBECDBFDF919D
:1003D000CF911F910F91BF90AF909F908F900895F4
:1003E000E95CE1CF4F925F926F927F928F929F92E2
:1003F000AF92BF92CF92DF92EF92FF920F931F9333
:10040000CF936B017C01742EAC019B010E94FE0C0A
:10041000882399F088E191E0CF911F910F91FF908F
:10042000EF90DF90CF90BF90AF909F908F907F9094
:100430006F905F904F900C94A10146015701E89492
:10044000B7F82FEF3FEF4FE75FE7C501B4010E9418
:10045000FE0C81110DC02FEF3FEF4FE75FE7C501A5
:10046000B4010E94AA0A18161CF48CE191E0D4CFC2
:100470002FEF3FEF4FE75FE4C701B6010E94460C44
:1004800018161CF480E291E0C7CF2FEF3FEF4FE743
:100490005FECC701B6010E94AA0A87FDF3CF20E0F6
:1004A00030E0A901C701B6010E94AA0A10E000E0ED
:1004B00087FF0AC06DE283E391E00E9434018C0162
:1004C000F7FAF094F7F8F094C0E060E070E080E0B4
:1004D0009FE37C1641F020E030E040E251E40E94CE
:1004E000B40ACF5FF6CFA70196010E943E0A2B0106
:1004F0003C010E94260B4B015C014AE00E94AE01C8
:100500007C01E00EF11ECC23C1F1C501B4010E94B3
:10051000550B9B01AC01C301B2010E943D0A4B0186
:100520005C016EE283E391E00E943401E80EF91E63
:10053000C15018F120E030E040E251E4C501B401BF
:100540000E944B0C2B013C010E94260B4B01B12C4D
:10055000A12C4AE0C501B4010E94AE01E80EF91ECB
:10056000C501B4010E94550B9B01AC01C301B2014E
:100570000E943D0A4B015C01DBCFC701CF911F9167
:100580000F91FF90EF90DF90CF90BF90AF909F9032
:100590008F907F906F905F904F9008952F923F9231
:1005A0004F925F926F927F928F929F92AF92BF9283
:1005B000CF92DF92EF92FF920F931F93CF93DF932F
:1005C000CDB7DEB7CE52D8400FB6F894DEBF0FBE1F
:1005D000CDBF9E012F5F3F4F79016E013FEFC31AE0
:1005E0003BEFD30A870120E4B22EB0927C008091C9
:1005F0007A00806480937A0080917A0086FDFCCF37
:100600006091780070917900072E000C880B990B8F
:100610000E94570BD8016D937D938D939D938D010F
:10062000AC15BD0511F79D01F70181919191A19143
:10063000B1917F01F90181939193A193B1939F01AE
:100640000E151F0589F7E090D309F090D409209189
:10065000D5093091D609CB5FD74F39832883C55050
:10066000D8402090DD093090DE0936952795CF5F80
:10067000D74F39832883C150D840CB5FD74F0881EB
:100680001981C550D840000F111F000F111FE11430
:10069000F10409F410C18091D009882309F448C0FD
:1006A0008091DF099091E009019709F041C08091A4
:1006B000D10981113DC05101020D131DD12CC12C56
:1006C000CF5FD74F88819981C150D840C816D906CD
:1006D00009F4C3C0D5012D913D914D915D915D010E
:1006E0004D01B4E08B1A9108F7016081718182811C
:1006F00093810E944B0CD4016D937D938D939C93B9
:100700001397F70121913191419151917F01D801C6
:100710009E918E917E916E918D010E944B0CF801FD
:100720006083718382839383FFEFCF1ADF0AC8CF80
:10073000CB5FD74F28813981C550D840B90190E0AF
:1007400080E00E94550B20E030E040E85FE30E942B
:100750003D0A4B015C01CD5FD74FF982E882C3505F
:10076000D84071016101C00ED11E10E000E0CF5FE2
:10077000D74F88819981C150D8408017910709F4DB
:1007800061C0B80190E080E00E94550BA501940182
:100790000E94B40A2BED3FE049EC50E40E944B0C60
:1007A0000E94AF0A2FE135E84BEE5EE30E944B0C4E
:1007B0009B01AC0161E77DE38AE09FE30E943D0A73
:1007C0002B013C01CD5FD74FA881B981C350D840E0
:1007D0004D925D926D927D92CD5FD74FB983A88384
:1007E000C350D840F70121913191419151917F013E
:1007F000CF010497C95FD74F99838883C750D840EA
:10080000C301B2010E944B0CC95FD74FA881B981C7
:10081000C750D8406D937D938D939C931397A301FC
:100820009201F60192918291729162916F010E9400
:100830004B0CD6016D937D938D939C9313970F5F13
:100840001F4F95CF81E08093D0091092D10981E0AC
:1008500090E09093E0098093DF09CB5FD74FE88168
:10086000F981C550D840C95FD74FF983E883C75095
:10087000D840CE5DD74F1882C252D840C95FD74FFB
:1008800028813981C750D84036952795C95FD74F01
:1008900039832883C750D840232B09F47EC0CE5D0E
:1008A000D74F3881C252D8403F5FCE5DD74F388393
:1008B000C252D840E3CFCB5FD74FE881F981C55012
:1008C000D840BF0190E080E00E94550B20E030E06E
:1008D00040E85FE30E943D0A2B013C016101020DEB
:1008E000131DF12CE12CCF5FD74F28813981C150E6
:1008F000D8402E153F0509F4B0CFB70190E080E055
:100900000E94550BA30192010E94B40A2BED3FE017
:1009100049EC50E40E944B0C0E94AF0A2FE135E8ED
:100920004BEE5EE30E944B0C9B01AC0161E77DE363
:100930008AE09FE30E943D0A4B015C01D6012D91A4
:100940003D914D915D916D01FD013497CD5FD74F84
:10095000F983E883C350D8400E944B0CCD5FD74F3A
:10096000A881B981C350D8406D937D938D939C939A
:100970001397A5019401F80192918291729162916D
:100980008F010E944B0CD8016D937D938D939C93A6
:100990001397BFEFEB1AFB0AA6CF8091DB0990916A
:1009A000DC09C95DD74F99838883C752D840C75E99
:1009B000D74F39822882C951D840F10130E020E078
:1009C00090E080E0CB5FD74F48815981C550D84037
:1009D000415051092417350780F528173907C8F405
:1009E000DC01AA0FBB1FAA0FBB1FA20DB31DC08045
:1009F000D180E280F3808D909D90AD90BC90139754
:100A000080829182A282B382CD92DD92ED92FC929D
:100A10001397CF5FD74F68817981C150D84086172F
:100A2000970728F0861B970B76956795F8CF860F6A
:100A3000971F2F5F3F4F3496CDCFC55ED74F18829B
:100A4000CB51D840A1E0B0E0C75FD74FB983A883AE
:100A5000C950D840C25ED74F188219821A821B82B1
:100A6000CE51D84080E090E0A0E8BFEBCF5ED74FFA
:100A700088839983AA83BB83C151D840C55ED74F71
:100A80009881CB51D840CE5DD74FA881C252D84073
:100A90009A135AC0C95DD74F08811981C752D840EF
:100AA000CB5FD74FE881F981C550D840C95FD74F98
:100AB00028813981C750D840E217F30709F4CDC225
:100AC000C75ED74FA881B981C951D8406D917D913A
:100AD0008D919D91C75ED74FB983A883C951D840E6
:100AE000F801C190D190E190F1908F019B01AC0190
:100AF0000E944B0C4B015C01A7019601C701B60196
:100B00000E944B0C9B01AC01C501B4010E943E0A3E
:100B10000E94BE0CC75ED74FE881F981C951D84009
:100B200034976083718382839383C95FD74F288111
:100B30003981C750D8402F5F3F4FC95FD74F3983A6
:100B40002883C750D840ACCFC75FD74FE881F98121
:100B5000C950D840EE0FFF1FC75DD74FF983E88318
:100B6000C952D840C75FD74F28813981C950D84072
:100B700043E0220F331F4A95E1F7CD5DD74F39830C
:100B80002883C352D840C75FD74F88819981C95005
:100B9000D840880F991F880F991FC55DD74F99833B
:100BA0008883CB52D840C15FD74F19821882CF506B
:100BB000D840C35FD74F19821882CD50D840412CFE
:100BC000512C3201C55FD74F1882CB50D840C45F3B
:100BD000D74F1882CC50D84010E80FE3C75FD74FEB
:100BE000A881B981C950D840C15FD74FE881F98148
:100BF000CF50D840AE17BF0709F4DEC1C35FD74F4F
:100C000028813981CD50D840220D331DCF5FD74F79
:100C100039832883C150D840C95DD74F88819981D5
:100C2000C752D840C35FD74FA881B981CD50D840B3
:100C30008A0F9B1FCD5FD74F99838883C350D840BD
:100C4000C45ED74FF983E883CC51D840CB5FD74FF0
:100C5000E881F981C550D840C45ED74F28813981D9
:100C6000CC51D8402E173F0708F028C1CF5FD74F8F
:100C700088819981C150D840C55DD74FA881B9817D
:100C8000CB52D8408A0F9B1FC35DD74F998388836F
:100C9000CD52D840FC0180809180A280B380CD5F8E
:100CA000D74F28813981C350D8402A0F3B1FCB5DD5
:100CB000D74F39832883C552D840D9018D919D9152
:100CC0000D90BC91A02DCB5ED74F88839983AA83CA
:100CD000BB83C551D840C55FD74F2881CB50D84082
:100CE000C45FD74F3881CC50D840412F502FC50119
:100CF000B4010E944B0C6B017C01A3019201CB5EFD
:100D0000D74F688179818A819B81C551D8400E94E3
:100D10004B0C9B01AC01C701B6010E943D0A6B015F
:100D20007C01CB5ED74F288139814A815B81C551D7
:100D3000D840C55FD74F6881CB50D840C45FD74FEC
:100D40007881CC50D840812F902F0E944B0CCB5EE5
:100D5000D74F688379838A839B83C551D840A30189
:100D60009201C501B4010E944B0C9B01AC01CB5E0A
:100D7000D74F688179818A819B81C551D8400E9473
:100D80003E0A4B015C01A7019601CF5FD74FE88176
:100D9000F981C150D84060817181828193810E9424
:100DA0003D0AC35DD74FA881B981CD52D8406D931C
:100DB0007D938D939C931397A5019401CD5FD74F9D
:100DC000E881F981C350D84060817181828193812B
:100DD0000E943D0ACB5DD74FA881B981C552D8404A
:100DE0006D937D938D939C931397A7019601CF5F8D
:100DF000D74FE881F981C150D840608171818281EB
:100E000093810E943E0ACF5FD74FA881B981C1501C
:100E1000D8406D937D938D939C931397A501940176
:100E2000CD5FD74FE881F981C350D840608171818F
:100E3000828193810E943E0ACD5FD74FA881B981FC
:100E4000C350D8406D937D938D939C931397C45E4C
:100E5000D74FE881F981CC51D840C75DD74F288161
:100E60003981C952D840E20FF31FC45ED74FF983CE
:100E7000E883CC51D840CF5FD74F88819981C1504A
:100E8000D840CD5DD74FA881B981C352D8408A0FD1
:100E90009B1FCF5FD74F99838883C150D840CD5FC8
:100EA000D74FE881F981C350D840EA0FFB1FCD5FCF
:100EB000D74FF983E883C350D840C8CECF5ED74F11
:100EC000288139814A815B81C151D840C55FD74FA4
:100ED0006881CB50D840C45FD74F7881CC50D84080
:100EE000812F902F0E944B0C6B017C01C25ED74F6B
:100EF000288139814A815B81CE51D840C301B2013A
:100F00000E944B0C9B01AC01C701B6010E943D0A37
:100F10006B017C01CF5ED74F288139814A815B818B
:100F2000C151D840C301B2010E944B0C4B015C017E
:100F3000C25ED74F288139814A815B81CE51D8402A
:100F4000C55FD74F6881CB50D840C45FD74F7881F9
:100F5000CC50D840812F902F0E944B0CA5019401BA
:100F60000E943E0A2B013C01C15FD74F2881398185
:100F7000CF50D8402F5F3F4FC15FD74F3983288371
:100F8000CF50D840C35FD74F88819981CD50D8408A
:100F90000496C35FD74F99838883CD50D840C55FEF
:100FA000D74FC882CB50D840C45FD74FD882CC50DF
:100FB000D8401E2D0F2D12CE20E030E040E05FE340
:100FC000CF5ED74F688179818A819B81C151D8409A
:100FD0000E944B0C4B015C01AC019B0160E070E096
:100FE00080E09FE30E943D0A0E94BE0C6B017C01E1
:100FF00020E030E040E05FE3C501B4010E943E0A1A
:101000000E94BE0CCF5ED74F688379838A839B830F
:10101000C151D840D701C601B058C25ED74F8883AE
:101020009983AA83BB83CE51D840C55ED74F9881A0
:10103000CB51D8409F5FC55ED74F9883CB51D840E6
:10104000C75DD74FA881B981C952D840C75FD74F74
:10105000B983A883C950D84011CD7E0137EFE31A78
:101060003BEFF30A02E010E0D7016D917D918D9185
:101070009D917D0142E00E94F20184E291E00E9494
:10108000A101B801012E000C880B990B0E94570B8F
:1010900020E030E04AEF55E40E944B0C20E030E0C5
:1010A00040E85BE30E944B0C42E00E94F20186E2C2
:1010B00091E00E94A1010F5F1F4F00381105A1F6BA
:1010C0000E946F004B015C0184E6C82ED12CE12CFC
:1010D000F12C0E946F00681979098A099B09683E02
:1010E000734081059105A8F3B1E0CB1AD108E1085E
:1010F000F108E8EE8E0EE3E09E1EA11CB11CC114A7
:10110000D104E104F10429F7C25DD74F0FB6F8947A
:10111000DEBF0FBECDBFDF91CF911F910F91FF902A
:10112000EF90DF90CF90BF90AF909F908F907F9087
:101130006F905F904F903F902F9008951F920F9265
:101140000FB60F9211242F933F938F939F93AF93DA
:10115000BF9380912B0190912C01A0912D01B09112
:101160002E0130912A0123E0230F2D3758F50196E7
:10117000A11DB11D20932A0180932B0190932C0176
:10118000A0932D01B0932E0180912F0190913001F9
:10119000A0913101B09132010196A11DB11D809342
:1011A0002F0190933001A0933101B0933201BF9190
:1011B000AF919F918F913F912F910F900FBE0F9004
:1011C0001F90189526E8230F0296A11DB11DD2CFBE
:1011D0001F920F920FB60F9211242F933F934F93AC
:1011E0005F936F937F938F939F93AF93BF93EF938F
:1011F000FF9383E391E00E941201FF91EF91BF9171
:10120000AF919F918F917F916F915F914F913F919E
:101210002F910F900FBE0F901F9018951F920F9255
:101220000FB60F9211242F938F939F93EF93FF93F9
:10123000E0914301F09144018081E0914901F091F6
:101240004A0182FD1BC0908180914C018F5F8F739A
:1012500020914D01821741F0E0914C01F0E0ED5CEE
:10126000FE4F958F80934C01FF91EF919F918F914D
:101270002F910F900FBE0F901F9018958081F4CF83
:10128000E3E3F1E01382128288EE93E0A0E0B0E0A5
:1012900084839583A683B7838AE091E091838083DA
:1012A00085EC90E09587848784EC90E0978786872B
:1012B00080EC90E0918B808B81EC90E0938B828B23
:1012C00082EC90E0958B848B86EC90E0978B868BFC
:1012D000118E128E138E148EE0EDF9E010821182C1
:1012E00080E091E09683858380E090E0AAEFB5E40A
:1012F00087839087A187B28780ED91E09487838769
:1013000080ED95E09687858788E0828308957894BC
:1013100084B5826084BD84B5816084BD85B58260FA
:1013200085BD85B5816085BD80916E0081608093AB
:101330006E00109281008091810082608093810014
:101340008091810081608093810080918000816024
:10135000809380008091B10084608093B10080917F
:10136000B00081608093B00080917A0084608093A7
:101370007A0080917A00826080937A0080917A006E
:10138000816080937A0080917A00806880937A00EF
:101390001092C100E0914301F091440182E080830A
:1013A000E0913F01F09140011082E0914101F09104
:1013B00042018FEC808310924B01E0914701F09144
:1013C000480186E08083E0914501F09146018081EB
:1013D00080618083E0914501F091460180818860C1
:1013E0008083E0914501F09146018081806880838F
:1013F000E0914501F091460180818F7D8083C0E0BE
:10140000D0E00E94CE022097E1F30E94FE008823E4
:10141000C1F30E940000F5CF8091D3099091D409C7
:10142000009711F00C94EF0D0895A1E21A2EAA1B5B
:10143000BB1BFD010DC0AA1FBB1FEE1FFF1FA21784
:10144000B307E407F50720F0A21BB30BE40BF50B81
:10145000661F771F881F991F1A9469F7609570950A
:10146000809590959B01AC01BD01CF010895EE0FD1
:10147000FF1F0590F491E02D09945058BB27AA272F
:101480000E94550A0C94F80B0E94BF0B38F00E9482
:10149000C60B20F039F49F3F19F426F40C94BC0BD2
:1014A0000EF4E095E7FB0C94B60BE92F0E941D0C9F
:1014B00058F3BA17620773078407950720F079F489
:1014C000A6F50C943F0C0EF4E0950B2EBA2FA02D30
:1014D0000B01B90190010C01CA01A0011124FF27E1
:1014E000591B99F0593F50F4503E68F11A16F040DC
:1014F000A22F232F342F4427585FF3CF46953795DB
:101500002795A795F0405395C9F77EF41F16BA0B9F
:10151000620B730B840BBAF09150A1F0FF0FBB1F4D
:10152000661F771F881FC2F70EC0BA0F621F731F96
:10153000841F48F4879577956795B795F7959E3FF3
:1015400008F0B0CF9395880F08F09927EE0F979584
:10155000879508950E94920B08F481E008950E94F7
:10156000CF0BE3950C94090C0E94C80A0C94F80B5D
:101570000E94C60B58F00E94BF0B40F029F45F3F59
:1015800029F00C94B60B51110C94400C0C94BC0B2C
:101590000E941D0C68F39923B1F3552391F3951B19
:1015A000550BBB27AA2762177307840738F09F5F84
:1015B0005F4F220F331F441FAA1FA9F335D00E2EF1
:1015C0003AF0E0E832D091505040E695001CCAF75E
:1015D0002BD0FE2F29D0660F771F881FBB1F261721
:1015E00037074807AB07B0E809F0BB0B802DBF01F8
:1015F000FF2793585F4F3AF09E3F510578F00C94C7
:10160000B60B0C94400C5F3FE4F3983ED4F3869500
:1016100077956795B795F7959F5FC9F7880F911DE7
:101620009695879597F90895E1E0660F771F881FD3
:10163000BB1F621773078407BA0720F0621B730B86
:10164000840BBA0BEE1F88F7E09508950E94250CD5
:1016500088F09F5798F0B92F9927B751B0F0E1F073
:10166000660F771F881F991F1AF0BA95C9F714C023
:10167000B13091F00E943F0CB1E008950C943F0C02
:10168000672F782F8827B85F39F0B93FCCF386955C
:1016900077956795B395D9F73EF4909580957095B9
:1016A00061957F4F8F4F9F4F0895E89409C097FB36
:1016B0003EF490958095709561957F4F8F4F9F4F29
:1016C0009923A9F0F92F96E9BB279395F69587956D
:1016D00077956795B795F111F8CFFAF4BB0F11F430
:1016E00060FF1BC06F5F7F4F8F4F9F4F16C08823D7
:1016F00011F096E911C0772321F09EE8872F762F0D
:1017000005C0662371F096E8862F70E060E02AF04D
:101710009A95660F771F881FDAF7880F9695879539
:1017200097F90895990F0008550FAA0BE0E8FEEF0E
:1017300016161706E807F907C0F012161306E40795
:10174000F50798F0621B730B840B950B39F40A268E
:1017500061F0232B242B252B21F408950A2609F46C
:10176000A140A6958FEF811D811D089597F99F6770
:1017700080E870E060E008959FEF80EC0895002419
:101780000A941616170618060906089500240A94E6
:10179000121613061406050608950C94BC0B0E943D
:1017A000250CD8F3E894E0E0BB279F57F0F02AED32
:1017B0003FE049EC06C0EE0FBB0F661F771F881F86
:1017C00028F0B23A62077307840728F0B25A620B16
:1017D000730B840BE3959A9572F7803830F49A95E1
:1017E000BB0F661F771F881FD2F790480C94050D1A
:1017F000092E0394000C11F4882352F0BB0F40F41F
:10180000BF2B11F460FF04C06F5F7F4F8F4F9F4F5E
:101810000895EF93E0FF07C0A2EA2AED3FE049EC0C
:101820005FEB0E94550A0E94F80B0F90039401FC95
:101830009058E8E6F0E00C94180D57FD9058440FCE
:10184000551F59F05F3F71F04795880F97FB991F1F
:1018500061F09F3F79F087950895121613061406DC
:10186000551FF2CF4695F1DF08C016161706180669
:10187000991FF1CF86957105610508940895E89444
:10188000BB2766277727CB0197F908950E94920B13
:1018900008F48FEF08950E945E0C0C94F80B0E94E0
:1018A000BF0B38F00E94C60B20F0952311F00C946A
:1018B000B60B0C94BC0B11240C94400C0E941D0C14
:1018C00070F3959FC1F3950F50E0551F629FF00193
:1018D000729FBB27F00DB11D639FAA27F00DB11DAC
:1018E000AA1F649F6627B00DA11D661F829F222735
:1018F000B00DA11D621F739FB00DA11D621F839FBC
:10190000A00D611D221F749F3327A00D611D231F91
:10191000849F600D211D822F762F6A2F11249F57DF
:1019200050409AF0F1F088234AF0EE0FFF1FBB1FE2
:10193000661F771F881F91505040A9F79E3F5105A1
:1019400080F00C94B60B0C94400C5F3FE4F3983E8F
:10195000D4F3869577956795B795F795E7959F5F4B
:10196000C1F7FE2B880F911D9695879597F90895DD
:1019700019F416F40C94BC0B0C94030D0E94250C66
:10198000B8F39923C9F3B6F39F57550B87FF0E940D
:10199000110D0024A0E640EA9001805856959795D5
:1019A00028F4805C660F771F881F20F02617370702
:1019B000480730F4621B730B840B202931294A2B12
:1019C000A69517940794202531254A2758F7660FC6
:1019D000771F881F20F026173707480730F4620B5F
:1019E000730B840B200D311D411DA09581F7B901AA
:1019F000842F9158880F9695879508950E94920B91
:101A0000880B990B08959F3F31F0915020F48795F2
:101A100077956795B795880F911D9695879597F956
:101A2000089591505040660F771F881FD2F7089590
:101A30009F938F937F936F93FF93EF939B01AC01E1
:101A40000E944B0CEF91FF910E942C0D2F913F9122
:101A50004F915F910C944B0CDF93CF931F930F9397
:101A6000FF92EF92DF927B018C01689406C0DA2E20
:101A7000EF010E945E0CFE01E894A591259135913D
:101A800045915591A6F3EF010E94550AFE01970179
:101A9000A801DA9469F7DF90EF90FF900F911F9102
:101AA000CF91DF9108950F931F93CF93DF938230EF
:101AB000910510F482E090E0E091E309F091E409EF
:101AC00030E020E0B0E0A0E0309799F42115310536
:101AD00009F44AC0281B390B24303105D8F58A8116
:101AE0009B816115710589F1FB0193838283FE015E
:101AF00011C0408151810281138148175907E0F0DC
:101B00004817590799F4109761F012960C931297A1
:101B100013961C933296CF01DF91CF911F910F91B5
:101B200008950093E3091093E409F4CF21153105DA
:101B300051F04217530738F0A901DB019A01BD01AA
:101B4000DF01F801C1CFEF01F9CF9093E409809351
:101B5000E309CDCFFE01E20FF31F81939193225051
:101B6000310939832883D7CF2091E1093091E209E7
:101B7000232B41F420910201309103013093E209BB
:101B80002093E109209100013091010121153105D7
:101B900041F42DB73EB74091040150910501241B3B
:101BA000350BE091E109F091E209E217F307A0F4A7
:101BB0002E1B3F0B2817390778F0AC014E5F5F4FA3
:101BC0002417350748F04E0F5F1F5093E2094093EA
:101BD000E109819391939FCFF0E0E0E09CCFCF9318
:101BE000DF930097E9F0FC01329713821282A091F3
:101BF000E309B091E409ED0130E020E01097A1F491
:101C000020813181820F931F2091E1093091E209F7
:101C10002817390709F061C0F093E209E093E10960
:101C2000DF91CF910895EA01CE17DF07E8F54A81E9
:101C30005B819E0141155105B1F7E901FB83EA8300
:101C400049915991C40FD51FEC17FD0761F48081AC
:101C500091810296840F951FE9019983888382817F
:101C600093819B838A83F0E0E0E012968D919C91B2
:101C700013970097B9F52D913C911197CD010296DC
:101C8000820F931F2091E1093091E209281739074B
:101C900039F6309751F51092E4091092E309B093A8
:101CA000E209A093E109BCCFD383C2834081518173
:101CB000840F951FC817D90761F44E5F5F4F888165
:101CC0009981480F591F518340838A819B81938357
:101CD00082832115310509F0B0CFF093E409E09338
:101CE000E3099ECFFD01DC01C0CF13821282D7CF62
:101CF00010E0C4E4D0E004C0FE010E94370A21963F
:0A1D0000C534D107C9F7F894FFCFEE
:101D0A000000E50980000000000034019400C100D1
:101D1A008101F200D000E4006E616E00696E660017
:0A1D2A006F7666002C000D0A000021
:00000001FF
