:100000000C9445000C946D000C946D000C946D00E4
:100010000C946D000C946D000C946D000C946D00AC
:100020000C946D000C946D000C946D000C946D009C
:100030000C946D000C946D000C946D000C946D008C
:100040000C94A4080C946D000C9414090C94EE0804
:100050000C946D000C946D000C946D000C946D006C
:100060000C946D000C946D0005A84CCDB2D44EB923
:100070003836A9020C50B9918688083CA6AAAA2A4B
:10008000BE000000803F4609120A11241FBECFEFB8
:10009000D8E0DEBFCDBF11E0A0E0B1E0E6E1FDE1D8
:1000A00002C005900D92A234B107D9F729E0A2E46D
:1000B000B1E001C01D92AD3FB207E1F710E0C4E42A
:1000C000D0E004C02197FE010E943D0AC334D1074D
:1000D000C9F70E948D090C947E0E0C9400003FB766
:1000E000F8948091470190914801A0914901B09105
:1000F0004A0126B5A89B05C02F3F19F00196A11D06
:10010000B11D3FBFBA2FA92F982F8827BC01CD0161
:10011000620F711D811D911D42E0660F771F881FC0
:10012000991F4A95D1F70895AF92BF92CF92DF926F
:10013000EF92FF920F931F93CF93DF936C017B019C
:100140008B01040F151FEB015E01AE18BF08C0172D
:10015000D10759F06991D601ED91FC910190F081A0
:10016000E02DC6010995892B79F7C501DF91CF9163
:100170001F910F91FF90EF90DF90CF90BF90AF90C5
:100180000895FC01538D448D252F30E0842F90E09D
:10019000821B930B541710F0CF9608950197089582
:1001A000FC01918D828D981761F0A28DAE0FBF2F4B
:1001B000B11D5D968C91928D9F5F9F73928F90E0A1
:1001C00008958FEF9FEF0895FC01918D828D981710
:1001D00031F0828DE80FF11D858D90E008958FEF4D
:1001E0009FEF0895FC01918D228D892F90E0805C16
:1001F0009F4F821B91098F73992708958BE491E09B
:100200000E94F20021E0892B09F420E0822F08955A
:1002100080E090E0892B29F00E94FE0081110C946F
:1002200000000895FC01A48DA80FB92FB11DA35A99
:10023000BF4F2C91848D90E001968F739927848F06
:10024000A689B7892C93A089B1898C918370806429
:100250008C93938D848D981306C00288F389E02DCA
:1002600080818F7D80830895EF92FF920F931F937B
:10027000CF93DF93EC0181E0888F9B8D8C8D981359
:100280001AC0E889F989808185FF15C09FB7F89465
:10029000EE89FF896083E889F989808183708064B1
:1002A00080839FBF81E090E0DF91CF911F910F91FC
:1002B000FF90EF900895F62E0B8D10E00F5F1F4F0B
:1002C0000F731127E02E8C8D8E110CC00FB607FC1A
:1002D000FACFE889F989808185FFF5CFCE010E94A8
:1002E0001201F1CFEB8DEC0FFD2FF11DE35AFF4F03
:1002F000F0829FB7F8940B8FEA89FB898081806236
:10030000CFCFCF93DF93EC01888D8823B9F0AA89F2
:10031000BB89E889F9898C9185FD03C0808186FDC0
:100320000DC00FB607FCF7CF8C9185FFF2CF80810F
:1003300085FFEDCFCE010E941201E9CFDF91CF9171
:100340000895FC0101900020E9F73197AF01481BA7
:10035000590BBC018BE491E00C9494008F929F9216
:10036000AF92BF920F931F93CF93DF93CDB7DEB7BA
:10037000A1970FB6F894DEBF0FBECDBF19A24230D1
:1003800008F44AE08E010F5D1F4F842E912CB12C92
:10039000A12CA50194010E941B0AE62FB901CA01F4
:1003A000EA30F4F4E05DD801EE938D01232B242B89
:1003B000252B79F790E080E0109719F0CD010E948D
:1003C000A101A1960FB6F894DEBF0FBECDBFDF919D
:1003D000CF911F910F91BF90AF909F908F900895F4
:1003E000E95CE1CF4F925F926F927F928F929F92E2
:1003F000AF92BF92CF92DF92EF92FF920F931F9333
:10040000CF936B017C01742EAC019B010E94040D03
:10041000882399F088E191E0CF911F910F91FF908F
:10042000EF90DF90CF90BF90AF909F908F907F9094
:100430006F905F904F900C94A10146015701E89492
:10044000B7F82FEF3FEF4FE75FE7C501B4010E9418
:10045000040D81110DC02FEF3FEF4FE75FE7C5019E
:10046000B4010E94B00A18161CF48CE191E0D4CFBC
:100470002FEF3FEF4FE75FE4C701B6010E944C0C3E
:1004800018161CF480E291E0C7CF2FEF3FEF4FE743
:100490005FECC701B6010E94B00A87FDF3CF20E0F0
:1004A00030E0A901C701B6010E94B00A10E000E0E7
:1004B00087FF0AC06DE28BE491E00E9434018C0159
:1004C000F7FAF094F7F8F094C0E060E070E080E0B4
:1004D0009FE37C1641F020E030E040E251E40E94CE
:1004E000BA0ACF5FF6CFA70196010E94440A2B01FA
:1004F0003C010E942C0B4B015C014AE00E94AE01C2
:100500007C01E00EF11ECC23C1F1C501B4010E94B3
:100510005B0B9B01AC01C301B2010E94430A4B017A
:100520005C016EE28BE491E00E943401E80EF91E5A
:10053000C15018F120E030E040E251E4C501B401BF
:100540000E94510C2B013C010E942C0B4B01B12C41
:10055000A12C4AE0C501B4010E94AE01E80EF91ECB
:10056000C501B4010E945B0B9B01AC01C301B20148
:100570000E94430A4B015C01DBCFC701CF911F9161
:100580000F91FF90EF90DF90CF90BF90AF909F9032
:100590008F907F906F905F904F9008952F923F9231
:1005A0004F925F926F927F928F929F92AF92BF9283
:1005B000CF92DF92EF92FF920F931F93CF93DF932F
:1005C000CDB7DEB7CE52D8400FB6F894DEBF0FBE1F
:1005D000CDBF9E012F5F3F4F79016E013FEFC31AE0
:1005E0003BEFD30A870120E4B22EB0927C008091C9
:1005F0007A00806480937A0080917A0086FDFCCF37
:100600006091780070917900072E000C880B990B8F
:100610000E945D0BD8016D937D938D939D938D0109
:10062000AC15BD0511F79D01F70181919191A19143
:10063000B1917F01F90181939193A193B1939F01AE
:100640000E151F0589F7E090EB09F090EC09209159
:10065000ED093091EE09CB5FD74F39832883C55020
:10066000D8402090F5093090F60936952795CF5F50
:10067000D74F39832883C150D840CB5FD74F0881EB
:100680001981C550D840000F111F000F111FE11430
:10069000F10409F410C18091E809882309F448C0E5
:1006A0008091F7099091F809019709F041C0809174
:1006B000E90981113DC05101020D131DD12CC12C3E
:1006C000CF5FD74F88819981C150D840C816D906CD
:1006D00009F4C3C0D5012D913D914D915D915D010E
:1006E0004D01B4E08B1A9108F7016081718182811C
:1006F00093810E94510CD4016D937D938D939C93B3
:100700001397F70121913191419151917F01D801C6
:100710009E918E917E916E918D010E94510CF801F7
:100720006083718382839383FFEFCF1ADF0AC8CF80
:10073000CB5FD74F28813981C550D840B90190E0AF
:1007400080E00E945B0B20E030E040E85FE30E9425
:10075000430A4B015C01CD5FD74FF982E882C35059
:10076000D84071016101C00ED11E10E000E0CF5FE2
:10077000D74F88819981C150D8408017910709F4DB
:1007800061C0B80190E080E00E945B0BA50194017C
:100790000E94BA0A2BED3FE049EC50E40E94510C54
:1007A0000E94B50A2FE135E84BEE5EE30E94510C42
:1007B0009B01AC0161E77DE38AE09FE30E94430A6D
:1007C0002B013C01CD5FD74FA881B981C350D840E0
:1007D0004D925D926D927D92CD5FD74FB983A88384
:1007E000C350D840F70121913191419151917F013E
:1007F000CF010497C95FD74F99838883C750D840EA
:10080000C301B2010E94510CC95FD74FA881B981C1
:10081000C750D8406D937D938D939C931397A301FC
:100820009201F60192918291729162916F010E9400
:10083000510CD6016D937D938D939C9313970F5F0D
:100840001F4F95CF81E08093E8091092E90981E07C
:1008500090E09093F8098093F709CB5FD74FE88138
:10086000F981C550D840C95FD74FF983E883C75095
:10087000D840CE5DD74F1882C252D840C95FD74FFB
:1008800028813981C750D84036952795C95FD74F01
:1008900039832883C750D840232B09F47EC0CE5D0E
:1008A000D74F3881C252D8403F5FCE5DD74F388393
:1008B000C252D840E3CFCB5FD74FE881F981C55012
:1008C000D840BF0190E080E00E945B0B20E030E068
:1008D00040E85FE30E94430A2B013C016101020DE5
:1008E000131DF12CE12CCF5FD74F28813981C150E6
:1008F000D8402E153F0509F4B0CFB70190E080E055
:100900000E945B0BA30192010E94BA0A2BED3FE00B
:1009100049EC50E40E94510C0E94B50A2FE135E8E1
:100920004BEE5EE30E94510C9B01AC0161E77DE35D
:100930008AE09FE30E94430A4B015C01D6012D919E
:100940003D914D915D916D01FD013497CD5FD74F84
:10095000F983E883C350D8400E94510CCD5FD74F34
:10096000A881B981C350D8406D937D938D939C939A
:100970001397A5019401F80192918291729162916D
:100980008F010E94510CD8016D937D938D939C93A0
:100990001397BFEFEB1AFB0AA6CF8091F309909152
:1009A000F409C95DD74F99838883C752D840C75E81
:1009B000D74F39822882C951D840F10130E020E078
:1009C00090E080E0CB5FD74F48815981C550D84037
:1009D000415051092417350780F528173907C8F405
:1009E000DC01AA0FBB1FAA0FBB1FA20DB31DC08045
:1009F000D180E280F3808D909D90AD90BC90139754
:100A000080829182A282B382CD92DD92ED92FC929D
:100A10001397CF5FD74F68817981C150D84086172F
:100A2000970728F0861B970B76956795F8CF860F6A
:100A3000971F2F5F3F4F3496CDCFC55ED74F18829B
:100A4000CB51D840A1E0B0E0C75FD74FB983A883AE
:100A5000C950D840C25ED74F188219821A821B82B1
:100A6000CE51D84080E090E0A0E8BFEBC15FD74F07
:100A700088839983AA83BB83CF50D840C55ED74F64
:100A80009881CB51D840CE5DD74FA881C252D84073
:100A90009A135AC0C95DD74F08811981C752D840EF
:100AA000CB5FD74FE881F981C550D840C95FD74F98
:100AB00028813981C750D840E217F30709F4CDC225
:100AC000C75ED74FA881B981C951D8406D917D913A
:100AD0008D919D91C75ED74FB983A883C951D840E6
:100AE000F801C190D190E190F1908F019B01AC0190
:100AF0000E94510C4B015C01A7019601C701B60190
:100B00000E94510C9B01AC01C501B4010E94440A32
:100B10000E94C40CC75ED74FE881F981C951D84003
:100B200034976083718382839383C95FD74F288111
:100B30003981C750D8402F5F3F4FC95FD74F3983A6
:100B40002883C750D840ACCFC75FD74FE881F98121
:100B5000C950D840EE0FFF1FC75DD74FF983E88318
:100B6000C952D840C75FD74F28813981C950D84072
:100B700043E0220F331F4A95E1F7CD5DD74F39830C
:100B80002883C352D840C75FD74F88819981C95005
:100B9000D840880F991F880F991FC35DD74F99833D
:100BA0008883CD52D840C35FD74F19821882CD5069
:100BB000D840CD5ED74F19821882C351D840412CFE
:100BC000512C3201C55FD74F1882CB50D840C45F3B
:100BD000D74F1882CC50D84010E80FE3C75FD74FEB
:100BE000A881B981C950D840C35FD74FE881F98146
:100BF000CD50D840AE17BF0709F4DEC1CD5ED74F48
:100C000028813981C351D840220D331DCF5FD74F82
:100C100039832883C150D840C95DD74F88819981D5
:100C2000C752D840CD5ED74FA881B981C351D840B3
:100C30008A0F9B1FCD5FD74F99838883C350D840BD
:100C4000C45ED74FF983E883CC51D840CB5FD74FF0
:100C5000E881F981C550D840C45ED74F28813981D9
:100C6000CC51D8402E173F0708F028C1CF5FD74F8F
:100C700088819981C150D840C35DD74FA881B9817F
:100C8000CD52D8408A0F9B1FC55DD74F998388836B
:100C9000CB52D840FC0180809180A280B380CD5F90
:100CA000D74F28813981C350D8402A0F3B1FCB5DD5
:100CB000D74F39832883C552D840D9018D919D9152
:100CC0000D90BC91A02DCB5ED74F88839983AA83CA
:100CD000BB83C551D840C55FD74F2881CB50D84082
:100CE000C45FD74F3881CC50D840412F502FC50119
:100CF000B4010E94510C6B017C01A3019201CB5EF7
:100D0000D74F688179818A819B81C551D8400E94E3
:100D1000510C9B01AC01C701B6010E94430A6B0153
:100D20007C01CB5ED74F288139814A815B81C551D7
:100D3000D840C55FD74F6881CB50D840C45FD74FEC
:100D40007881CC50D840812F902F0E94510CCB5EDF
:100D5000D74F688379838A839B83C551D840A30189
:100D60009201C501B4010E94510C9B01AC01CB5E04
:100D7000D74F688179818A819B81C551D8400E9473
:100D8000440A4B015C01A7019601CF5FD74FE88170
:100D9000F981C150D84060817181828193810E9424
:100DA000430AC55DD74FA881B981CB52D8406D9316
:100DB0007D938D939C931397A5019401CD5FD74F9D
:100DC000E881F981C350D84060817181828193812B
:100DD0000E94430ACB5DD74FA881B981C552D84044
:100DE0006D937D938D939C931397A7019601CF5F8D
:100DF000D74FE881F981C150D840608171818281EB
:100E000093810E94440ACF5FD74FA881B981C15016
:100E1000D8406D937D938D939C931397A501940176
:100E2000CD5FD74FE881F981C350D840608171818F
:100E3000828193810E94440ACD5FD74FA881B981F6
:100E4000C350D8406D937D938D939C931397C45E4C
:100E5000D74FE881F981CC51D840C75DD74F288161
:100E60003981C952D840E20FF31FC45ED74FF983CE
:100E7000E883CC51D840CF5FD74F88819981C1504A
:100E8000D840CD5DD74FA881B981C352D8408A0FD1
:100E90009B1FCF5FD74F99838883C150D840CD5FC8
:100EA000D74FE881F981C350D840EA0FFB1FCD5FCF
:100EB000D74FF983E883C350D840C8CEC15FD74F1E
:100EC000288139814A815B81CF50D840C55FD74F97
:100ED0006881CB50D840C45FD74F7881CC50D84080
:100EE000812F902F0E94510C6B017C01C25ED74F65
:100EF000288139814A815B81CE51D840C301B2013A
:100F00000E94510C9B01AC01C701B6010E94430A2B
:100F10006B017C01C15FD74F288139814A815B8198
:100F2000CF50D840C301B2010E94510C4B015C016B
:100F3000C25ED74F288139814A815B81CE51D8402A
:100F4000C55FD74F6881CB50D840C45FD74F7881F9
:100F5000CC50D840812F902F0E94510CA5019401B4
:100F60000E94440A2B013C01C35FD74F288139817D
:100F7000CD50D8402F5F3F4FC35FD74F3983288371
:100F8000CD50D840CD5ED74F88819981C351D8408C
:100F90000496CD5ED74F99838883C351D840C55FEF
:100FA000D74FC882CB50D840C45FD74FD882CC50DF
:100FB000D8401E2D0F2D12CE20E030E040E05FE340
:100FC000C15FD74F688179818A819B81CF50D8409A
:100FD0000E94510C4B015C01AC019B0160E070E090
:100FE00080E09FE30E94430A0E94C40C6B017C01D5
:100FF00020E030E040E05FE3C501B4010E94440A14
:101000000E94C40CC15FD74F688379838A839B8316
:10101000CF50D840D701C601B058C25ED74F8883A1
:101020009983AA83BB83CE51D840C55ED74F9881A0
:10103000CB51D8409F5FC55ED74F9883CB51D840E6
:10104000C75DD74FA881B981C952D840C75FD74F74
:10105000B983A883C950D84011CD7E0137EFE31A78
:101060003BEFF30A02E010E0D7018D909D90AD9028
:10107000BD907D0184E291E00E94A101B801012EA2
:10108000000C880B990B0E945D0B20E030E04AEFCA
:1010900055E40E94510C20E030E040E85BE30E9400
:1010A000510C42E00E94F20180E391E00E94A10114
:1010B00042E0C501B4010E94F2018EE391E00E947A
:1010C000A1010F5F1F4F0038110571F60E946F00DC
:1010D0004B015C0184E6C82ED12CE12CF12C0E943E
:1010E0006F00681979098A099B09683E7340810578
:1010F0009105A8F3B1E0CB1AD108E108F108E8EEB8
:101100008E0EE3E09E1EA11CB11CC114D104E104AB
:10111000F10429F7C25DD74F0FB6F894DEBF0FBEBA
:10112000CDBFDF91CF911F910F91FF90EF90DF9096
:10113000CF90BF90AF909F908F907F906F905F9077
:101140004F903F902F9008951F920F920FB60F92DD
:1011500011242F933F938F939F93AF93BF938091CD
:10116000430190914401A0914501B0914601309115
:10117000420123E0230F2D3758F50196A11DB11D23
:10118000209342018093430190934401A093450131
:10119000B09346018091470190914801A091490187
:1011A000B0914A010196A11DB11D80934701909312
:1011B0004801A0934901B0934A01BF91AF919F911B
:1011C0008F913F912F910F900FBE0F901F90189508
:1011D00026E8230F0296A11DB11DD2CF1F920F92B8
:1011E0000FB60F9211242F933F934F935F936F93FA
:1011F0007F938F939F93AF93BF93EF93FF938BE472
:1012000091E00E941201FF91EF91BF91AF919F91E8
:101210008F917F916F915F914F913F912F910F909F
:101220000FBE0F901F9018951F920F920FB60F923E
:1012300011242F938F939F93EF93FF93E0915B0182
:10124000F0915C018081E0916101F091620182FD89
:101250001BC09081809164018F5F8F732091650125
:10126000821741F0E0916401F0E0E55BFE4F958F5D
:1012700080936401FF91EF919F918F912F910F9037
:101280000FBE0F901F9018958081F4CFEBE4F1E032
:101290001382128288EE93E0A0E0B0E0848395830D
:1012A000A683B7838AE091E09183808385EC90E008
:1012B0009587848784EC90E09787868780EC90E020
:1012C000918B808B81EC90E0938B828B82EC90E011
:1012D000958B848B86EC90E0978B868B118E128E8B
:1012E000138E148EE8EEF9E01082118280E091E016
:1012F0009683858380E090E0AAEFB5E487839087AA
:10130000A187B28788EE91E09487838788EE95E085
:101310009687858788E082830895789484B5826073
:1013200084BD84B5816084BD85B5826085BD85B589
:10133000816085BD80916E00816080936E00109207
:101340008100809181008260809381008091810082
:101350008160809381008091800081608093800013
:101360008091B10084608093B1008091B000816071
:101370008093B00080917A00846080937A0080919D
:101380007A00826080937A0080917A0081608093F5
:101390007A0080917A00806880937A001092C10070
:1013A000E0915B01F0915C0182E08083E091570164
:1013B000F09158011082E0915901F0915A018FEC9F
:1013C000808310926301E0915F01F091600186E0FB
:1013D0008083E0915D01F0915E0180818061808376
:1013E000E0915D01F0915E01808188608083E091F1
:1013F0005D01F0915E01808180688083E0915D01F4
:10140000F0915E0180818F7D8083C0E0D0E00E94FA
:10141000CE022097E1F30E94FE008823C1F30E94D0
:101420000000F5CF8091EB099091EC09009711F045
:101430000C94F50D0895A1E21A2EAA1BBB1BFD0109
:101440000DC0AA1FBB1FEE1FFF1FA217B307E407A3
:10145000F50720F0A21BB30BE40BF50B661F771FFB
:10146000881F991F1A9469F76095709580959095DB
:101470009B01AC01BD01CF010895EE0FFF1F059048
:10148000F491E02D09945058BB27AA270E945B0ACB
:101490000C94FE0B0E94C50B38F00E94CC0B20F080
:1014A00039F49F3F19F426F40C94C20B0EF4E09526
:1014B000E7FB0C94BC0BE92F0E94230C58F3BA17DE
:1014C000620773078407950720F079F4A6F50C945A
:1014D000450C0EF4E0950B2EBA2FA02D0B01B9018F
:1014E00090010C01CA01A0011124FF27591B99F09A
:1014F000593F50F4503E68F11A16F040A22F232FA6
:10150000342F4427585FF3CF469537952795A795F5
:10151000F0405395C9F77EF41F16BA0B620B730B9C
:10152000840BBAF09150A1F0FF0FBB1F661F771F0D
:10153000881FC2F70EC0BA0F621F731F841F48F4C2
:10154000879577956795B795F7959E3F08F0B0CF4B
:101550009395880F08F09927EE0F97958795089532
:101560000E94980B08F481E008950E94D50BE39542
:101570000C940F0C0E94CE0A0C94FE0B0E94CC0B14
:1015800058F00E94C50B40F029F45F3F29F00C94FD
:10159000BC0B51110C94460C0C94C20B0E94230CF2
:1015A00068F39923B1F3552391F3951B550BBB2792
:1015B000AA2762177307840738F09F5F5F4F220FD7
:1015C000331F441FAA1FA9F335D00E2E3AF0E0E8CE
:1015D00032D091505040E695001CCAF72BD0FE2F18
:1015E00029D0660F771F881FBB1F261737074807AC
:1015F000AB07B0E809F0BB0B802DBF01FF27935864
:101600005F4F3AF09E3F510578F00C94BC0B0C9460
:10161000460C5F3FE4F3983ED4F386957795679543
:10162000B795F7959F5FC9F7880F911D9695879598
:1016300097F90895E1E0660F771F881FBB1F6217B7
:1016400073078407BA0720F0621B730B840BBA0B75
:10165000EE1F88F7E09508950E942B0C88F09F57A5
:1016600098F0B92F9927B751B0F0E1F0660F771FC6
:10167000881F991F1AF0BA95C9F714C0B13091F0BC
:101680000E94450CB1E008950C94450C672F782F0B
:101690008827B85F39F0B93FCCF386957795679581
:1016A000B395D9F73EF490958095709561957F4FED
:1016B0008F4F9F4F0895E89409C097FB3EF4909593
:1016C0008095709561957F4F8F4F9F4F9923A9F01B
:1016D000F92F96E9BB279395F695879577956795AA
:1016E000B795F111F8CFFAF4BB0F11F460FF1BC0EE
:1016F0006F5F7F4F8F4F9F4F16C0882311F096E981
:1017000011C0772321F09EE8872F762F05C066232E
:1017100071F096E8862F70E060E02AF09A95660FE7
:10172000771F881FDAF7880F9695879597F90895A0
:10173000990F0008550FAA0BE0E8FEEF16161706E2
:10174000E807F907C0F012161306E407F50798F04A
:10175000621B730B840B950B39F40A2661F0232B63
:10176000242B252B21F408950A2609F4A140A695DF
:101770008FEF811D811D089597F99F6780E870E0C4
:1017800060E008959FEF80EC089500240A941616F7
:10179000170618060906089500240A94121613065F
:1017A0001406050608950C94C20B0E942B0CD8F366
:1017B000E894E0E0BB279F57F0F02AED3FE049ECCA
:1017C00006C0EE0FBB0F661F771F881F28F0B23AC6
:1017D00062077307840728F0B25A620B730B840BFD
:1017E000E3959A9572F7803830F49A95BB0F661F8F
:1017F000771F881FD2F790480C940B0D092E039485
:10180000000C11F4882352F0BB0F40F4BF2B11F4ED
:1018100060FF04C06F5F7F4F8F4F9F4F0895EF931E
:10182000E0FF07C0A2EA2AED3FE049EC5FEB0E942F
:101830005B0A0E94FE0B0F90039401FC9058E8E6AF
:10184000F0E00C941E0D57FD9058440F551F59F0B1
:101850005F3F71F04795880F97FB991F61F09F3F9D
:1018600079F087950895121613061406551FF2CFC6
:101870004695F1DF08C0161617061806991FF1CF16
:1018800086957105610508940895E894BB2766273D
:101890007727CB0197F908950E94980B08F48FEFF2
:1018A00008950E94640C0C94FE0B0E94C50B38F046
:1018B0000E94CC0B20F0952311F00C94BC0B0C94DF
:1018C000C20B11240C94460C0E94230C70F3959FBC
:1018D000C1F3950F50E0551F629FF001729FBB2727
:1018E000F00DB11D639FAA27F00DB11DAA1F649FC3
:1018F0006627B00DA11D661F829F2227B00DA11D76
:10190000621F739FB00DA11D621F839FA00D611DFB
:10191000221F749F3327A00D611D231F849F600D1C
:10192000211D822F762F6A2F11249F5750409AF045
:10193000F1F088234AF0EE0FFF1FBB1F661F771FD1
:10194000881F91505040A9F79E3F510580F00C949C
:10195000BC0B0C94460C5F3FE4F3983ED4F38695A1
:1019600077956795B795F795E7959F5FC1F7FE2B3C
:10197000880F911D9695879597F9089519F416F497
:101980000C94C20B0C94090D0E942B0CB8F39923F4
:10199000C9F3B6F39F57550B87FF0E94170D00241C
:1019A000A0E640EA900180585695979528F4805C0F
:1019B000660F771F881F20F026173707480730F477
:1019C000621B730B840B202931294A2BA69517948F
:1019D0000794202531254A2758F7660F771F881F5F
:1019E00020F026173707480730F4620B730B840B7F
:1019F000200D311D411DA09581F7B901842F91580B
:101A0000880F9695879508950E94980B880B990BDF
:101A100008959F3F31F0915020F487957795679511
:101A2000B795880F911D9695879597F908959150D0
:101A30005040660F771F881FD2F708959F938F93AA
:101A40007F936F93FF93EF939B01AC010E94510C26
:101A5000EF91FF910E94320D2F913F914F915F9135
:101A60000C94510CDF93CF931F930F93FF92EF923F
:101A7000DF927B018C01689406C0DA2EEF010E9490
:101A8000640CFE01E894A5912591359145915591FD
:101A9000A6F3EF010E945B0AFE019701A801DA9408
:101AA00069F7DF90EF90FF900F911F91CF91DF9139
:101AB00008950F931F93CF93DF938230910510F415
:101AC00082E090E0E091FB09F091FC0930E020E039
:101AD000B0E0A0E0309799F42115310509F44AC02F
:101AE000281B390B24303105D8F58A819B8161157B
:101AF000710589F1FB0193838283FE0111C040814E
:101B000051810281138148175907E0F0481759079E
:101B100099F4109761F012960C93129713961C93F8
:101B20003296CF01DF91CF911F910F9108950093CD
:101B3000FB091093FC09F4CF2115310551F0421730
:101B4000530738F0A901DB019A01BD01DF01F8015B
:101B5000C1CFEF01F9CF9093FC098093FB09CDCF62
:101B6000FE01E20FF31F81939193225031093983D3
:101B70002883D7CF2091F9093091FA09232B41F41A
:101B800020910201309103013093FA092093F90961
:101B900020910001309101012115310541F42DB74B
:101BA0003EB74091040150910501241B350BE09193
:101BB000F909F091FA09E217F307A0F42E1B3F0B85
:101BC0002817390778F0AC014E5F5F4F24173507AF
:101BD00048F04E0F5F1F5093FA094093F909819323
:101BE00091939FCFF0E0E0E09CCFCF93DF930097FD
:101BF000E9F0FC01329713821282A091FB09B091A7
:101C0000FC09ED0130E020E01097A1F42081318142
:101C1000820F931F2091F9093091FA09281739078B
:101C200009F061C0F093FA09E093F909DF91CF91CF
:101C30000895EA01CE17DF07E8F54A815B819E012E
:101C400041155105B1F7E901FB83EA8349915991A7
:101C5000C40FD51FEC17FD0761F4808191810296B6
:101C6000840F951FE90199838883828193819B83E7
:101C70008A83F0E0E0E012968D919C911397009793
:101C8000B9F52D913C911197CD010296820F931FCA
:101C90002091F9093091FA092817390739F6309758
:101CA00051F51092FC091092FB09B093FA09A09328
:101CB000F909BCCFD383C28340815181840F951F22
:101CC000C817D90761F44E5F5F4F88819981480F2B
:101CD000591F518340838A819B819383828321157D
:101CE000310509F0B0CFF093FC09E093FB099ECFDA
:101CF000FD01DC01C0CF13821282D7CF10E0C4E413
:101D0000D0E004C0FE010E943D0A2196C534D107EF
:061D1000C9F7F894FFCFB3
:101D16000000FD0980000000000034019400C100AD
:101D26008101F200D000E4006E616E00696E66000B
:101D36006F7666004672657175656E63793A200046
:101D460020487A2C20566F6C756D653A20000D0A76
:021D560000008B
:00000001FF
